{
  "contractName": "Governed",
  "abi": [
    {
      "anonymous": false,
      "inputs": [
        {
          "indexed": true,
          "internalType": "address",
          "name": "from",
          "type": "address"
        },
        {
          "indexed": true,
          "internalType": "address",
          "name": "to",
          "type": "address"
        }
      ],
      "name": "NewOwnership",
      "type": "event"
    },
    {
      "anonymous": false,
      "inputs": [
        {
          "indexed": true,
          "internalType": "address",
          "name": "from",
          "type": "address"
        },
        {
          "indexed": true,
          "internalType": "address",
          "name": "to",
          "type": "address"
        }
      ],
      "name": "NewPendingOwnership",
      "type": "event"
    },
    {
      "inputs": [],
      "name": "governor",
      "outputs": [
        {
          "internalType": "address",
          "name": "",
          "type": "address"
        }
      ],
      "stateMutability": "view",
      "type": "function"
    },
    {
      "inputs": [],
      "name": "pendingGovernor",
      "outputs": [
        {
          "internalType": "address",
          "name": "",
          "type": "address"
        }
      ],
      "stateMutability": "view",
      "type": "function"
    },
    {
      "inputs": [
        {
          "internalType": "address",
          "name": "_newGovernor",
          "type": "address"
        }
      ],
      "name": "transferOwnership",
      "outputs": [],
      "stateMutability": "nonpayable",
      "type": "function"
    },
    {
      "inputs": [],
      "name": "acceptOwnership",
      "outputs": [],
      "stateMutability": "nonpayable",
      "type": "function"
    }
  ],
  "bytecode": "0x608060405234801561001057600080fd5b506106dc806100206000396000f3fe608060405234801561001057600080fd5b506004361061004c5760003560e01c80630c340a241461005157806379ba509714610085578063e3056a341461008f578063f2fde38b146100c3575b600080fd5b610059610107565b604051808273ffffffffffffffffffffffffffffffffffffffff16815260200191505060405180910390f35b61008d61012b565b005b610097610434565b604051808273ffffffffffffffffffffffffffffffffffffffff16815260200191505060405180910390f35b610105600480360360208110156100d957600080fd5b81019080803573ffffffffffffffffffffffffffffffffffffffff16906020019092919050505061045a565b005b60008054906101000a900473ffffffffffffffffffffffffffffffffffffffff1681565b600073ffffffffffffffffffffffffffffffffffffffff16600160009054906101000a900473ffffffffffffffffffffffffffffffffffffffff1673ffffffffffffffffffffffffffffffffffffffff16141580156101d75750600160009054906101000a900473ffffffffffffffffffffffffffffffffffffffff1673ffffffffffffffffffffffffffffffffffffffff163373ffffffffffffffffffffffffffffffffffffffff16145b610249576040517f08c379a000000000000000000000000000000000000000000000000000000000815260040180806020018281038252601f8152602001807f43616c6c6572206d7573742062652070656e64696e6720676f7665726e6f720081525060200191505060405180910390fd5b60008060009054906101000a900473ffffffffffffffffffffffffffffffffffffffff1690506000600160009054906101000a900473ffffffffffffffffffffffffffffffffffffffff169050600160009054906101000a900473ffffffffffffffffffffffffffffffffffffffff166000806101000a81548173ffffffffffffffffffffffffffffffffffffffff021916908373ffffffffffffffffffffffffffffffffffffffff1602179055506000600160006101000a81548173ffffffffffffffffffffffffffffffffffffffff021916908373ffffffffffffffffffffffffffffffffffffffff16021790555060008054906101000a900473ffffffffffffffffffffffffffffffffffffffff1673ffffffffffffffffffffffffffffffffffffffff168273ffffffffffffffffffffffffffffffffffffffff167f0ac6deed30eef60090c749850e10f2fa469e3e25fec1d1bef2853003f6e6f18f60405160405180910390a3600160009054906101000a900473ffffffffffffffffffffffffffffffffffffffff1673ffffffffffffffffffffffffffffffffffffffff168173ffffffffffffffffffffffffffffffffffffffff167f76563ad561b7036ae716b9b25cb521b21463240f104c97e12f25877f2235f33d60405160405180910390a35050565b600160009054906101000a900473ffffffffffffffffffffffffffffffffffffffff1681565b60008054906101000a900473ffffffffffffffffffffffffffffffffffffffff1673ffffffffffffffffffffffffffffffffffffffff163373ffffffffffffffffffffffffffffffffffffffff161461051b576040517f08c379a00000000000000000000000000000000000000000000000000000000081526004018080602001828103825260168152602001807f4f6e6c7920476f7665726e6f722063616e2063616c6c0000000000000000000081525060200191505060405180910390fd5b600073ffffffffffffffffffffffffffffffffffffffff168173ffffffffffffffffffffffffffffffffffffffff1614156105be576040517f08c379a00000000000000000000000000000000000000000000000000000000081526004018080602001828103825260148152602001807f476f7665726e6f72206d7573742062652073657400000000000000000000000081525060200191505060405180910390fd5b6000600160009054906101000a900473ffffffffffffffffffffffffffffffffffffffff16905081600160006101000a81548173ffffffffffffffffffffffffffffffffffffffff021916908373ffffffffffffffffffffffffffffffffffffffff160217905550600160009054906101000a900473ffffffffffffffffffffffffffffffffffffffff1673ffffffffffffffffffffffffffffffffffffffff168173ffffffffffffffffffffffffffffffffffffffff167f76563ad561b7036ae716b9b25cb521b21463240f104c97e12f25877f2235f33d60405160405180910390a3505056fea26469706673582212203329ce0263b4ac8e3a1e1045cfb97f4ce388e068d9a4a78674b18d8dbd12b85064736f6c63430007000033",
  "immutableReferences": {},
  "source": "// SPDX-License-Identifier: MIT\n\npragma solidity ^0.7.0;\n\n/**\n * @title Graph Governance contract\n * @dev All contracts that will be owned by a Governor entity should extend this contract.\n */\ncontract Governed {\n    // -- State --\n\n    address public governor;\n    address public pendingGovernor;\n\n    // -- Events --\n\n    event NewPendingOwnership(address indexed from, address indexed to);\n    event NewOwnership(address indexed from, address indexed to);\n\n    /**\n     * @dev Check if the caller is the governor.\n     */\n    modifier onlyGovernor {\n        require(msg.sender == governor, \"Only Governor can call\");\n        _;\n    }\n\n    /**\n     * @dev Initialize the governor to the contract caller.\n     */\n    function _initialize(address _initGovernor) internal {\n        governor = _initGovernor;\n    }\n\n    /**\n     * @dev Admin function to begin change of governor. The `_newGovernor` must call\n     * `acceptOwnership` to finalize the transfer.\n     * @param _newGovernor Address of new `governor`\n     */\n    function transferOwnership(address _newGovernor) external onlyGovernor {\n        require(_newGovernor != address(0), \"Governor must be set\");\n\n        address oldPendingGovernor = pendingGovernor;\n        pendingGovernor = _newGovernor;\n\n        emit NewPendingOwnership(oldPendingGovernor, pendingGovernor);\n    }\n\n    /**\n     * @dev Admin function for pending governor to accept role and update governor.\n     * This function must called by the pending governor.\n     */\n    function acceptOwnership() external {\n        require(\n            pendingGovernor != address(0) && msg.sender == pendingGovernor,\n            \"Caller must be pending governor\"\n        );\n\n        address oldGovernor = governor;\n        address oldPendingGovernor = pendingGovernor;\n\n        governor = pendingGovernor;\n        pendingGovernor = address(0);\n\n        emit NewOwnership(oldGovernor, governor);\n        emit NewPendingOwnership(oldPendingGovernor, pendingGovernor);\n    }\n}",
  "sourcePath": "/home/simon/yWorkApp/yWork/contracts/governance/Governed.sol",
  "compiler": {
    "name": "solc",
    "version": "0.7.0+commit.9e61f92b.Emscripten.clang"
  },
  "schemaVersion": "3.3.2",
  "updatedAt": "2020-12-27T15:18:03.548Z",
  "devdoc": {
    "details": "All contracts that will be owned by a Governor entity should extend this contract.",
    "kind": "dev",
    "methods": {
      "acceptOwnership()": {
        "details": "Admin function for pending governor to accept role and update governor. This function must called by the pending governor."
      },
      "transferOwnership(address)": {
        "details": "Admin function to begin change of governor. The `_newGovernor` must call `acceptOwnership` to finalize the transfer.",
        "params": {
          "_newGovernor": "Address of new `governor`"
        }
      }
    },
    "title": "Graph Governance contract",
    "version": 1
  },
  "userdoc": {
    "kind": "user",
    "methods": {},
    "version": 1
  }
}