{
  "contractName": "Governor",
  "abi": [
    {
      "inputs": [
        {
          "internalType": "address",
          "name": "_treasury",
          "type": "address"
        },
        {
          "internalType": "address",
          "name": "_nwk",
          "type": "address"
        },
        {
          "internalType": "address",
          "name": "_nwkCore",
          "type": "address"
        }
      ],
      "stateMutability": "nonpayable",
      "type": "constructor"
    },
    {
      "anonymous": false,
      "inputs": [
        {
          "indexed": false,
          "internalType": "uint256",
          "name": "id",
          "type": "uint256"
        }
      ],
      "name": "ProposalCanceled",
      "type": "event"
    },
    {
      "anonymous": false,
      "inputs": [
        {
          "indexed": false,
          "internalType": "uint256",
          "name": "id",
          "type": "uint256"
        },
        {
          "indexed": false,
          "internalType": "address",
          "name": "proposer",
          "type": "address"
        },
        {
          "indexed": false,
          "internalType": "address[]",
          "name": "targets",
          "type": "address[]"
        },
        {
          "indexed": false,
          "internalType": "uint256[]",
          "name": "values",
          "type": "uint256[]"
        },
        {
          "indexed": false,
          "internalType": "string[]",
          "name": "signatures",
          "type": "string[]"
        },
        {
          "indexed": false,
          "internalType": "bytes[]",
          "name": "calldatas",
          "type": "bytes[]"
        },
        {
          "indexed": false,
          "internalType": "uint256",
          "name": "startBlock",
          "type": "uint256"
        },
        {
          "indexed": false,
          "internalType": "uint256",
          "name": "endBlock",
          "type": "uint256"
        },
        {
          "indexed": false,
          "internalType": "string",
          "name": "description",
          "type": "string"
        }
      ],
      "name": "ProposalCreated",
      "type": "event"
    },
    {
      "anonymous": false,
      "inputs": [
        {
          "indexed": false,
          "internalType": "uint256",
          "name": "id",
          "type": "uint256"
        }
      ],
      "name": "ProposalExecuted",
      "type": "event"
    },
    {
      "anonymous": false,
      "inputs": [
        {
          "indexed": false,
          "internalType": "uint256",
          "name": "id",
          "type": "uint256"
        },
        {
          "indexed": false,
          "internalType": "uint256",
          "name": "eta",
          "type": "uint256"
        }
      ],
      "name": "ProposalQueued",
      "type": "event"
    },
    {
      "anonymous": false,
      "inputs": [
        {
          "indexed": false,
          "internalType": "address",
          "name": "voter",
          "type": "address"
        },
        {
          "indexed": false,
          "internalType": "uint256",
          "name": "proposalId",
          "type": "uint256"
        },
        {
          "indexed": false,
          "internalType": "bool",
          "name": "support",
          "type": "bool"
        },
        {
          "indexed": false,
          "internalType": "uint256",
          "name": "votes",
          "type": "uint256"
        }
      ],
      "name": "VoteCast",
      "type": "event"
    },
    {
      "inputs": [],
      "name": "BALLOT_TYPEHASH",
      "outputs": [
        {
          "internalType": "bytes32",
          "name": "",
          "type": "bytes32"
        }
      ],
      "stateMutability": "view",
      "type": "function"
    },
    {
      "inputs": [],
      "name": "DOMAIN_TYPEHASH",
      "outputs": [
        {
          "internalType": "bytes32",
          "name": "",
          "type": "bytes32"
        }
      ],
      "stateMutability": "view",
      "type": "function"
    },
    {
      "inputs": [
        {
          "internalType": "address",
          "name": "",
          "type": "address"
        }
      ],
      "name": "latestProposalIds",
      "outputs": [
        {
          "internalType": "uint256",
          "name": "",
          "type": "uint256"
        }
      ],
      "stateMutability": "view",
      "type": "function"
    },
    {
      "inputs": [],
      "name": "nwk",
      "outputs": [
        {
          "internalType": "contract NwkInterface",
          "name": "",
          "type": "address"
        }
      ],
      "stateMutability": "view",
      "type": "function"
    },
    {
      "inputs": [],
      "name": "nwkApp",
      "outputs": [
        {
          "internalType": "contract NwkCoreInterface",
          "name": "",
          "type": "address"
        }
      ],
      "stateMutability": "view",
      "type": "function"
    },
    {
      "inputs": [],
      "name": "proposalCount",
      "outputs": [
        {
          "internalType": "uint256",
          "name": "",
          "type": "uint256"
        }
      ],
      "stateMutability": "view",
      "type": "function"
    },
    {
      "inputs": [
        {
          "internalType": "uint256",
          "name": "",
          "type": "uint256"
        }
      ],
      "name": "proposals",
      "outputs": [
        {
          "internalType": "uint256",
          "name": "id",
          "type": "uint256"
        },
        {
          "internalType": "address",
          "name": "proposer",
          "type": "address"
        },
        {
          "internalType": "uint256",
          "name": "eta",
          "type": "uint256"
        },
        {
          "internalType": "uint256",
          "name": "forVotes",
          "type": "uint256"
        },
        {
          "internalType": "uint256",
          "name": "againstVotes",
          "type": "uint256"
        },
        {
          "internalType": "bool",
          "name": "canceled",
          "type": "bool"
        },
        {
          "internalType": "bool",
          "name": "executed",
          "type": "bool"
        }
      ],
      "stateMutability": "view",
      "type": "function"
    },
    {
      "inputs": [],
      "name": "treasury",
      "outputs": [
        {
          "internalType": "contract TreasuryInterface",
          "name": "",
          "type": "address"
        }
      ],
      "stateMutability": "view",
      "type": "function"
    },
    {
      "inputs": [],
      "name": "quorumVotes",
      "outputs": [
        {
          "internalType": "uint256",
          "name": "",
          "type": "uint256"
        }
      ],
      "stateMutability": "pure",
      "type": "function"
    },
    {
      "inputs": [],
      "name": "proposalThreshold",
      "outputs": [
        {
          "internalType": "uint256",
          "name": "",
          "type": "uint256"
        }
      ],
      "stateMutability": "pure",
      "type": "function"
    }
  ],
  "bytecode": "0x608060405234801561001057600080fd5b5060405161082838038061082883398181016040528101906100329190610112565b82600360006101000a81548173ffffffffffffffffffffffffffffffffffffffff021916908373ffffffffffffffffffffffffffffffffffffffff16021790555081600460006101000a81548173ffffffffffffffffffffffffffffffffffffffff021916908373ffffffffffffffffffffffffffffffffffffffff16021790555080600560006101000a81548173ffffffffffffffffffffffffffffffffffffffff021916908373ffffffffffffffffffffffffffffffffffffffff1602179055505050506101aa565b60008151905061010c81610193565b92915050565b60008060006060848603121561012757600080fd5b6000610135868287016100fd565b9350506020610146868287016100fd565b9250506040610157868287016100fd565b9150509250925092565b600061016c82610173565b9050919050565b600073ffffffffffffffffffffffffffffffffffffffff82169050919050565b61019c81610161565b81146101a757600080fd5b50565b61066f806101b96000396000f3fe608060405234801561001057600080fd5b506004361061009e5760003560e01c806361d027b31161006657806361d027b31461016357806365743ee514610181578063b58131b01461019f578063da35c664146101bd578063deaaa7cc146101db5761009e565b8063013cf08b146100a357806317977c61146100d95780631bff496e1461010957806320606b701461012757806324bc1a6414610145575b600080fd5b6100bd60048036038101906100b891906103c5565b6101f9565b6040516100d097969594939291906104de565b60405180910390f35b6100f360048036038101906100ee919061039c565b610275565b60405161010091906104c3565b60405180910390f35b61011161028d565b60405161011e919061048d565b60405180910390f35b61012f6102b3565b60405161013c9190610457565b60405180910390f35b61014d6102d7565b60405161015a91906104c3565b60405180910390f35b61016b6102ea565b60405161017891906104a8565b60405180910390f35b610189610310565b6040516101969190610472565b60405180910390f35b6101a7610336565b6040516101b491906104c3565b60405180910390f35b6101c5610348565b6040516101d291906104c3565b60405180910390f35b6101e361034e565b6040516101f09190610457565b60405180910390f35b60006020528060005260406000206000915090508060000154908060010160009054906101000a900473ffffffffffffffffffffffffffffffffffffffff16908060020154908060070154908060080154908060090160009054906101000a900460ff16908060090160019054906101000a900460ff16905087565b60016020528060005260406000206000915090505481565b600460009054906101000a900473ffffffffffffffffffffffffffffffffffffffff1681565b7f8cad95687ba82c2ce50e74f7b754645e5117c3a5bec8151c0726d5857980a86681565b60006a18d0bf423c03d8de000000905090565b600360009054906101000a900473ffffffffffffffffffffffffffffffffffffffff1681565b600560009054906101000a900473ffffffffffffffffffffffffffffffffffffffff1681565b60006969e10de76676d0800000905090565b60025481565b7f8e25870c07e0b0b3884c78da52790939a455c275406c44ae8b434b692fb916ee81565b6000813590506103818161060b565b92915050565b60008135905061039681610622565b92915050565b6000602082840312156103ae57600080fd5b60006103bc84828501610372565b91505092915050565b6000602082840312156103d757600080fd5b60006103e584828501610387565b91505092915050565b6103f78161054d565b82525050565b6104068161055f565b82525050565b6104158161056b565b82525050565b6104248161059f565b82525050565b610433816105c3565b82525050565b610442816105e7565b82525050565b61045181610595565b82525050565b600060208201905061046c600083018461040c565b92915050565b6000602082019050610487600083018461041b565b92915050565b60006020820190506104a2600083018461042a565b92915050565b60006020820190506104bd6000830184610439565b92915050565b60006020820190506104d86000830184610448565b92915050565b600060e0820190506104f3600083018a610448565b61050060208301896103ee565b61050d6040830188610448565b61051a6060830187610448565b6105276080830186610448565b61053460a08301856103fd565b61054160c08301846103fd565b98975050505050505050565b600061055882610575565b9050919050565b60008115159050919050565b6000819050919050565b600073ffffffffffffffffffffffffffffffffffffffff82169050919050565b6000819050919050565b60006105aa826105b1565b9050919050565b60006105bc82610575565b9050919050565b60006105ce826105d5565b9050919050565b60006105e082610575565b9050919050565b60006105f2826105f9565b9050919050565b600061060482610575565b9050919050565b6106148161054d565b811461061f57600080fd5b50565b61062b81610595565b811461063657600080fd5b5056fea2646970667358221220e9fd33b22b9be8336ffd9846db253b3cb3e956db8137aa0537ed8ea87ed9adeb64736f6c63430007000033",
  "immutableReferences": {},
  "source": "// SPDX-License-Identifier: MIT\npragma solidity ^0.7.0;\npragma experimental ABIEncoderV2;\n\nimport '@openzeppelin/contracts/math/SafeMath.sol';\n\n/**\n * @title nWork Governance contract\n * @dev All contracts that will be owned by a Governor entity should extend this contract.\n */\ncontract Governor {\n    using SafeMath for uint256;\n\n    /**\n     * @dev the number of votes in support of a mint required in order for a quorum to be reached\n     */\n    function quorumVotes() public pure returns (uint256) { return 30_000_000e18; } // 3% of total supply\n\n    /**\n     * @dev the number of votes required in order for a voter to become a proposer\n     */\n    function proposalThreshold() public pure returns (uint256) { return 500_000e18; } // 0.5% of total supply\n\n\n    // -- State --\n\n    // The official record of all proposals ever proposed\n    mapping (uint => Proposal) public proposals;\n\n    // The latest proposal for each proposer\n    mapping (address => uint) public latestProposalIds;\n\n    // The EIP-712 typehash for the contract's domain\n    bytes32 public constant DOMAIN_TYPEHASH = keccak256(\"EIP712Domain(string name,uint256 chainId,address verifyingContract)\");\n\n    // The EIP-712 typehash for the ballot struct used by the contract\n    bytes32 public constant BALLOT_TYPEHASH = keccak256(\"Ballot(uint256 proposalId,bool support)\");\n\n    uint256 public proposalCount;\n\n    TreasuryInterface public treasury;\n\n    NwkInterface public nwk;\n\n    NwkCoreInterface public nwkApp;\n\n    // -- Events --\n\n    // An event emitted when a new proposal is created\n    event ProposalCreated(uint256 id, address proposer, address[] targets, uint[] values, string[] signatures, bytes[] calldatas, uint256 startBlock, uint256 endBlock, string description);\n\n    // An event emitted when a vote has been cast on a proposal\n    event VoteCast(address voter, uint256 proposalId, bool support, uint256 votes);\n\n    // An event emitted when a proposal has been canceled\n    event ProposalCanceled(uint256 id);\n\n    // An event emitted when a proposal has been queued in the Timelock\n    event ProposalQueued(uint256 id, uint256 eta);\n\n    // An event emitted when a proposal has been executed in the Timelock\n    event ProposalExecuted(uint256 id);\n\n    struct Proposal {\n        // Unique id for looking up a proposal\n        uint256 id;\n\n        // Creator of the proposal;\n        address proposer;\n\n        // The timestamp that the proposal will be available for execution, set once the vote succeeds\n        uint256 eta;\n\n        // The ordered list of target addresses for calls to be made\n        address[] targets;\n\n        // The ordered list of values (i.e. msg.value) to be passed to the calls to be made\n        uint256[] values;\n\n        // The ordered list of function signatures to be called\n        string[] signatures;\n\n        // The ordered list of calldata to be passed to each call\n        bytes[] calldatas;\n\n        // Current number of votes in favor of this proposal\n        uint256 forVotes;\n\n        // Current number of votes in opposition to this proposal\n        uint256 againstVotes;\n\n        // Flag marking whether the proposal has been canceled\n        bool canceled;\n\n        // Flag marking whether the proposal has been executed\n        bool executed;\n\n        // Receipts of ballots for the entire set of voters\n        mapping (address => Receipt) receipts;\n    }\n\n    // Ballot receipt record for a voter\n    struct Receipt {\n        // Whether or not a vote has been cast\n        bool hasVoted;\n\n        // Whether or not the voter supports the proposal\n        bool support;\n\n        // The number of votes the voter had, which were cast\n        uint96 votes;\n    }\n\n\n    constructor(address _treasury, address _nwk, address _nwkCore) {\n        treasury = TreasuryInterface(_treasury);\n        nwk = NwkInterface(_nwk);\n        nwkApp = NwkCoreInterface(_nwkCore);\n    }\n\n    /*\n    function propose() public returns (uint256) {\n        require(nwk.getPriorVotes(msg.sender, SafeMath.sub(block.number, 1)) > proposalThreshold(), \"Governor::propose: proposer votes below proposal threshold\");\n\t\trequire(targets.length == values.length && targets.length == signatures.length && targets.length == calldatas.length, \"Governor::propose: proposal function information arity mismatch\");\n\n    }\n    */\n}\n\ninterface TreasuryInterface {\n    function executeTransaction(address target, uint256 value, string calldata signature, bytes calldata data, uint256 eta) external payable returns (bytes memory);\n}\n\ninterface NwkInterface {\n\n}\n\ninterface NwkCoreInterface {\n\n}",
  "sourcePath": "/home/simon/nWorkApp/nWork/contracts/Governor.sol",
  "compiler": {
    "name": "solc",
    "version": "0.7.0+commit.9e61f92b.Emscripten.clang"
  },
  "schemaVersion": "3.3.2",
  "updatedAt": "2021-01-04T23:56:21.640Z",
  "devdoc": {
    "details": "All contracts that will be owned by a Governor entity should extend this contract.",
    "kind": "dev",
    "methods": {
      "proposalThreshold()": {
        "details": "the number of votes required in order for a voter to become a proposer"
      },
      "quorumVotes()": {
        "details": "the number of votes in support of a mint required in order for a quorum to be reached"
      }
    },
    "title": "nWork Governance contract",
    "version": 1
  },
  "userdoc": {
    "kind": "user",
    "methods": {},
    "version": 1
  }
}