{
  "contractName": "Governor",
  "abi": [
    {
      "inputs": [
        {
          "internalType": "address",
          "name": "_treasury",
          "type": "address"
        },
        {
          "internalType": "address",
          "name": "_nwk",
          "type": "address"
        },
        {
          "internalType": "address",
          "name": "_nwkCore",
          "type": "address"
        }
      ],
      "stateMutability": "nonpayable",
      "type": "constructor"
    },
    {
      "anonymous": false,
      "inputs": [
        {
          "indexed": false,
          "internalType": "uint256",
          "name": "id",
          "type": "uint256"
        }
      ],
      "name": "ProposalCanceled",
      "type": "event"
    },
    {
      "anonymous": false,
      "inputs": [
        {
          "indexed": false,
          "internalType": "uint256",
          "name": "id",
          "type": "uint256"
        },
        {
          "indexed": false,
          "internalType": "address",
          "name": "proposer",
          "type": "address"
        },
        {
          "indexed": false,
          "internalType": "address[]",
          "name": "targets",
          "type": "address[]"
        },
        {
          "indexed": false,
          "internalType": "uint256[]",
          "name": "values",
          "type": "uint256[]"
        },
        {
          "indexed": false,
          "internalType": "string[]",
          "name": "signatures",
          "type": "string[]"
        },
        {
          "indexed": false,
          "internalType": "bytes[]",
          "name": "calldatas",
          "type": "bytes[]"
        },
        {
          "indexed": false,
          "internalType": "uint256",
          "name": "startBlock",
          "type": "uint256"
        },
        {
          "indexed": false,
          "internalType": "uint256",
          "name": "endBlock",
          "type": "uint256"
        },
        {
          "indexed": false,
          "internalType": "string",
          "name": "description",
          "type": "string"
        }
      ],
      "name": "ProposalCreated",
      "type": "event"
    },
    {
      "anonymous": false,
      "inputs": [
        {
          "indexed": false,
          "internalType": "uint256",
          "name": "id",
          "type": "uint256"
        }
      ],
      "name": "ProposalExecuted",
      "type": "event"
    },
    {
      "anonymous": false,
      "inputs": [
        {
          "indexed": false,
          "internalType": "uint256",
          "name": "id",
          "type": "uint256"
        },
        {
          "indexed": false,
          "internalType": "uint256",
          "name": "eta",
          "type": "uint256"
        }
      ],
      "name": "ProposalQueued",
      "type": "event"
    },
    {
      "anonymous": false,
      "inputs": [
        {
          "indexed": false,
          "internalType": "address",
          "name": "voter",
          "type": "address"
        },
        {
          "indexed": false,
          "internalType": "uint256",
          "name": "proposalId",
          "type": "uint256"
        },
        {
          "indexed": false,
          "internalType": "bool",
          "name": "support",
          "type": "bool"
        },
        {
          "indexed": false,
          "internalType": "uint256",
          "name": "votes",
          "type": "uint256"
        }
      ],
      "name": "VoteCast",
      "type": "event"
    },
    {
      "inputs": [],
      "name": "BALLOT_TYPEHASH",
      "outputs": [
        {
          "internalType": "bytes32",
          "name": "",
          "type": "bytes32"
        }
      ],
      "stateMutability": "view",
      "type": "function"
    },
    {
      "inputs": [],
      "name": "DOMAIN_TYPEHASH",
      "outputs": [
        {
          "internalType": "bytes32",
          "name": "",
          "type": "bytes32"
        }
      ],
      "stateMutability": "view",
      "type": "function"
    },
    {
      "inputs": [
        {
          "internalType": "address",
          "name": "",
          "type": "address"
        }
      ],
      "name": "latestProposalIds",
      "outputs": [
        {
          "internalType": "uint256",
          "name": "",
          "type": "uint256"
        }
      ],
      "stateMutability": "view",
      "type": "function"
    },
    {
      "inputs": [],
      "name": "nwk",
      "outputs": [
        {
          "internalType": "contract NwkInterface",
          "name": "",
          "type": "address"
        }
      ],
      "stateMutability": "view",
      "type": "function"
    },
    {
      "inputs": [],
      "name": "nwkApp",
      "outputs": [
        {
          "internalType": "contract NwkCoreInterface",
          "name": "",
          "type": "address"
        }
      ],
      "stateMutability": "view",
      "type": "function"
    },
    {
      "inputs": [],
      "name": "proposalCount",
      "outputs": [
        {
          "internalType": "uint256",
          "name": "",
          "type": "uint256"
        }
      ],
      "stateMutability": "view",
      "type": "function"
    },
    {
      "inputs": [
        {
          "internalType": "uint256",
          "name": "",
          "type": "uint256"
        }
      ],
      "name": "proposals",
      "outputs": [
        {
          "internalType": "uint256",
          "name": "id",
          "type": "uint256"
        },
        {
          "internalType": "address",
          "name": "proposer",
          "type": "address"
        },
        {
          "internalType": "uint256",
          "name": "eta",
          "type": "uint256"
        },
        {
          "internalType": "uint256",
          "name": "startBlock",
          "type": "uint256"
        },
        {
          "internalType": "uint256",
          "name": "endBlock",
          "type": "uint256"
        },
        {
          "internalType": "uint256",
          "name": "forVotes",
          "type": "uint256"
        },
        {
          "internalType": "uint256",
          "name": "againstVotes",
          "type": "uint256"
        },
        {
          "internalType": "bool",
          "name": "canceled",
          "type": "bool"
        },
        {
          "internalType": "bool",
          "name": "executed",
          "type": "bool"
        }
      ],
      "stateMutability": "view",
      "type": "function"
    },
    {
      "inputs": [],
      "name": "treasury",
      "outputs": [
        {
          "internalType": "contract TreasuryInterface",
          "name": "",
          "type": "address"
        }
      ],
      "stateMutability": "view",
      "type": "function"
    },
    {
      "inputs": [],
      "name": "quorumVotes",
      "outputs": [
        {
          "internalType": "uint256",
          "name": "",
          "type": "uint256"
        }
      ],
      "stateMutability": "pure",
      "type": "function"
    },
    {
      "inputs": [],
      "name": "proposalThreshold",
      "outputs": [
        {
          "internalType": "uint256",
          "name": "",
          "type": "uint256"
        }
      ],
      "stateMutability": "pure",
      "type": "function"
    },
    {
      "inputs": [
        {
          "internalType": "uint256",
          "name": "proposalId",
          "type": "uint256"
        }
      ],
      "name": "state",
      "outputs": [
        {
          "internalType": "enum Governor.ProposalState",
          "name": "",
          "type": "uint8"
        }
      ],
      "stateMutability": "view",
      "type": "function"
    },
    {
      "inputs": [
        {
          "internalType": "address[]",
          "name": "targets",
          "type": "address[]"
        },
        {
          "internalType": "uint256[]",
          "name": "values",
          "type": "uint256[]"
        },
        {
          "internalType": "string[]",
          "name": "signatures",
          "type": "string[]"
        },
        {
          "internalType": "bytes[]",
          "name": "calldatas",
          "type": "bytes[]"
        },
        {
          "internalType": "string",
          "name": "description",
          "type": "string"
        }
      ],
      "name": "propose",
      "outputs": [
        {
          "internalType": "uint256",
          "name": "",
          "type": "uint256"
        }
      ],
      "stateMutability": "nonpayable",
      "type": "function"
    },
    {
      "inputs": [
        {
          "internalType": "uint256",
          "name": "proposalId",
          "type": "uint256"
        },
        {
          "internalType": "bool",
          "name": "support",
          "type": "bool"
        }
      ],
      "name": "castVote",
      "outputs": [],
      "stateMutability": "nonpayable",
      "type": "function"
    }
  ],
  "bytecode": "0x60806040523480156200001157600080fd5b5060405162001a5a38038062001a5a83398181016040528101906200003791906200011a565b82600360006101000a81548173ffffffffffffffffffffffffffffffffffffffff021916908373ffffffffffffffffffffffffffffffffffffffff16021790555081600460006101000a81548173ffffffffffffffffffffffffffffffffffffffff021916908373ffffffffffffffffffffffffffffffffffffffff16021790555080600560006101000a81548173ffffffffffffffffffffffffffffffffffffffff021916908373ffffffffffffffffffffffffffffffffffffffff160217905550505050620001be565b6000815190506200011481620001a4565b92915050565b6000806000606084860312156200013057600080fd5b6000620001408682870162000103565b9350506020620001538682870162000103565b9250506040620001668682870162000103565b9150509250925092565b60006200017d8262000184565b9050919050565b600073ffffffffffffffffffffffffffffffffffffffff82169050919050565b620001af8162000170565b8114620001bb57600080fd5b50565b61188c80620001ce6000396000f3fe608060405234801561001057600080fd5b50600436106100cf5760003560e01c80633e4f49e61161008c578063b58131b011610066578063b58131b01461021e578063da35c6641461023c578063da95691a1461025a578063deaaa7cc1461028a576100cf565b80633e4f49e6146101b257806361d027b3146101e257806365743ee514610200576100cf565b8063013cf08b146100d457806315373e3d1461010c57806317977c61146101285780631bff496e1461015857806320606b701461017657806324bc1a6414610194575b600080fd5b6100ee60048036038101906100e99190610efe565b6102a8565b604051610103999897969594939291906114a5565b60405180910390f35b61012660048036038101906101219190610f50565b610330565b005b610142600480360381019061013d9190610de6565b61033f565b60405161014f919061148a565b60405180910390f35b610160610357565b60405161016d9190611357565b60405180910390f35b61017e61037d565b60405161018b9190611321565b60405180910390f35b61019c6103a1565b6040516101a9919061148a565b60405180910390f35b6101cc60048036038101906101c79190610efe565b6103ad565b6040516101d9919061138d565b60405180910390f35b6101ea610591565b6040516101f79190611372565b60405180910390f35b6102086105b7565b604051610215919061133c565b60405180910390f35b6102266105dd565b604051610233919061148a565b60405180910390f35b6102446105e8565b604051610251919061148a565b60405180910390f35b610274600480360381019061026f9190610e0f565b6105ee565b604051610281919061148a565b60405180910390f35b610292610756565b60405161029f9190611321565b60405180910390f35b60006020528060005260406000206000915090508060000154908060010160009054906101000a900473ffffffffffffffffffffffffffffffffffffffff169080600201549080600701549080600801549080600901549080600a01549080600b0160009054906101000a900460ff169080600b0160019054906101000a900460ff16905089565b61033b33838361077a565b5050565b60016020528060005260406000206000915090505481565b600460009054906101000a900473ffffffffffffffffffffffffffffffffffffffff1681565b7f8cad95687ba82c2ce50e74f7b754645e5117c3a5bec8151c0726d5857980a86681565b60006301c9c380905090565b600081600254101580156103c15750600082115b610400576040517f08c379a00000000000000000000000000000000000000000000000000000000081526004016103f79061142a565b60405180910390fd5b6000806000848152602001908152602001600020905080600b0160009054906101000a900460ff161561043757600291505061058c565b8060070154431161044c57600091505061058c565b8060080154431161046157600191505061058c565b80600a01548160090154111580610482575061047b6103a1565b8160090154105b1561049157600391505061058c565b6000816002015414156104a857600491505061058c565b80600b0160019054906101000a900460ff16156104c957600791505061058c565b6105768160020154600360009054906101000a900473ffffffffffffffffffffffffffffffffffffffff1673ffffffffffffffffffffffffffffffffffffffff1663c1a287e26040518163ffffffff1660e01b815260040160206040518083038186803b15801561053957600080fd5b505afa15801561054d573d6000803e3d6000fd5b505050506040513d601f19601f820116820180604052508101906105719190610f27565b610a02565b421061058657600691505061058c565b60059150505b919050565b600360009054906101000a900473ffffffffffffffffffffffffffffffffffffffff1681565b600560009054906101000a900473ffffffffffffffffffffffffffffffffffffffff1681565b60006207a120905090565b60025481565b60006105f86105dd565b600460009054906101000a900473ffffffffffffffffffffffffffffffffffffffff1673ffffffffffffffffffffffffffffffffffffffff1663782d6fe133610642436001610a57565b6040518363ffffffff1660e01b815260040161065f92919061128a565b60206040518083038186803b15801561067757600080fd5b505afa15801561068b573d6000803e3d6000fd5b505050506040513d601f19601f820116820180604052508101906106af9190610f27565b116106ef576040517f08c379a00000000000000000000000000000000000000000000000000000000081526004016106e6906113ca565b60405180910390fd5b84518651148015610701575083518651145b801561070e575082518651145b61074d576040517f08c379a0000000000000000000000000000000000000000000000000000000008152600401610744906113ea565b60405180910390fd5b95945050505050565b7f8e25870c07e0b0b3884c78da52790939a455c275406c44ae8b434b692fb916ee81565b6001600781111561078757fe5b610790836103ad565b600781111561079b57fe5b146107db576040517f08c379a00000000000000000000000000000000000000000000000000000000081526004016107d29061146a565b60405180910390fd5b60008060008481526020019081526020016000209050600081600c0160008673ffffffffffffffffffffffffffffffffffffffff1673ffffffffffffffffffffffffffffffffffffffff1681526020019081526020016000209050600015158160000160009054906101000a900460ff1615151461088e576040517f08c379a00000000000000000000000000000000000000000000000000000000081526004016108859061144a565b60405180910390fd5b6000600460009054906101000a900473ffffffffffffffffffffffffffffffffffffffff1673ffffffffffffffffffffffffffffffffffffffff1663782d6fe18785600701546040518363ffffffff1660e01b81526004016108f19291906112b3565b60206040518083038186803b15801561090957600080fd5b505afa15801561091d573d6000803e3d6000fd5b505050506040513d601f19601f820116820180604052508101906109419190610f27565b9050831561096457610957836009015482610a02565b836009018190555061097b565b61097283600a015482610a02565b83600a01819055505b60018260000160006101000a81548160ff021916908315150217905550838260000160016101000a81548160ff0219169083151502179055508082600101819055507f877856338e13f63d0c36822ff0ef736b80934cd90574a3a5bc9262c39d217c46868686846040516109f294939291906112dc565b60405180910390a1505050505050565b600080828401905083811015610a4d576040517f08c379a0000000000000000000000000000000000000000000000000000000008152600401610a449061140a565b60405180910390fd5b8091505092915050565b6000610a9983836040518060400160405280601e81526020017f536166654d6174683a207375627472616374696f6e206f766572666c6f770000815250610aa1565b905092915050565b6000838311158290610ae9576040517f08c379a0000000000000000000000000000000000000000000000000000000008152600401610ae091906113a8565b60405180910390fd5b5060008385039050809150509392505050565b600081359050610b0b81611811565b92915050565b600082601f830112610b2257600080fd5b8135610b35610b3082611563565b611532565b91508181835260208401935060208101905083856020840282011115610b5a57600080fd5b60005b83811015610b8a5781610b708882610afc565b845260208401935060208301925050600181019050610b5d565b5050505092915050565b600082601f830112610ba557600080fd5b8135610bb8610bb38261158f565b611532565b9150818183526020840193506020810190508360005b83811015610bfe5781358601610be48882610d14565b845260208401935060208301925050600181019050610bce565b5050505092915050565b600082601f830112610c1957600080fd5b8135610c2c610c27826115bb565b611532565b9150818183526020840193506020810190508360005b83811015610c725781358601610c588882610d68565b845260208401935060208301925050600181019050610c42565b5050505092915050565b600082601f830112610c8d57600080fd5b8135610ca0610c9b826115e7565b611532565b91508181835260208401935060208101905083856020840282011115610cc557600080fd5b60005b83811015610cf55781610cdb8882610dbc565b845260208401935060208301925050600181019050610cc8565b5050505092915050565b600081359050610d0e81611828565b92915050565b600082601f830112610d2557600080fd5b8135610d38610d3382611613565b611532565b91508082526020830160208301858383011115610d5457600080fd5b610d5f8382846117a8565b50505092915050565b600082601f830112610d7957600080fd5b8135610d8c610d8782611643565b611532565b91508082526020830160208301858383011115610da857600080fd5b610db38382846117a8565b50505092915050565b600081359050610dcb8161183f565b92915050565b600081519050610de08161183f565b92915050565b600060208284031215610df857600080fd5b6000610e0684828501610afc565b91505092915050565b600080600080600060a08688031215610e2757600080fd5b600086013567ffffffffffffffff811115610e4157600080fd5b610e4d88828901610b11565b955050602086013567ffffffffffffffff811115610e6a57600080fd5b610e7688828901610c7c565b945050604086013567ffffffffffffffff811115610e9357600080fd5b610e9f88828901610c08565b935050606086013567ffffffffffffffff811115610ebc57600080fd5b610ec888828901610b94565b925050608086013567ffffffffffffffff811115610ee557600080fd5b610ef188828901610d68565b9150509295509295909350565b600060208284031215610f1057600080fd5b6000610f1e84828501610dbc565b91505092915050565b600060208284031215610f3957600080fd5b6000610f4784828501610dd1565b91505092915050565b60008060408385031215610f6357600080fd5b6000610f7185828601610dbc565b9250506020610f8285828601610cff565b9150509250929050565b610f95816116f4565b82525050565b610fa48161168f565b82525050565b610fb3816116a1565b82525050565b610fc2816116ad565b82525050565b610fd181611706565b82525050565b610fe08161172a565b82525050565b610fef8161174e565b82525050565b610ffe81611772565b82525050565b600061100f82611673565b611019818561167e565b93506110298185602086016117b7565b611032816117ec565b840191505092915050565b600061104a603a8361167e565b91507f476f7665726e6f723a3a70726f706f73653a2070726f706f73657220766f746560008301527f732062656c6f772070726f706f73616c207468726573686f6c640000000000006020830152604082019050919050565b60006110b0603f8361167e565b91507f476f7665726e6f723a3a70726f706f73653a2070726f706f73616c2066756e6360008301527f74696f6e20696e666f726d6174696f6e206172697479206d69736d61746368006020830152604082019050919050565b6000611116601b8361167e565b91507f536166654d6174683a206164646974696f6e206f766572666c6f7700000000006000830152602082019050919050565b600061115660248361167e565b91507f476f7665726e6f723a3a73746174653a20696e76616c69642070726f706f736160008301527f6c206964000000000000000000000000000000000000000000000000000000006020830152604082019050919050565b60006111bc60288361167e565b91507f476f7665726e6f723a3a5f63617374566f74653a20766f74657220616c72656160008301527f647920766f7465640000000000000000000000000000000000000000000000006020830152604082019050919050565b600061122260258361167e565b91507f476f7665726e6f723a3a5f63617374566f74653a20766f74696e67206973206360008301527f6c6f7365640000000000000000000000000000000000000000000000000000006020830152604082019050919050565b611284816116ea565b82525050565b600060408201905061129f6000830185610f8c565b6112ac602083018461127b565b9392505050565b60006040820190506112c86000830185610f9b565b6112d5602083018461127b565b9392505050565b60006080820190506112f16000830187610f9b565b6112fe602083018661127b565b61130b6040830185610faa565b611318606083018461127b565b95945050505050565b60006020820190506113366000830184610fb9565b92915050565b60006020820190506113516000830184610fc8565b92915050565b600060208201905061136c6000830184610fd7565b92915050565b60006020820190506113876000830184610fe6565b92915050565b60006020820190506113a26000830184610ff5565b92915050565b600060208201905081810360008301526113c28184611004565b905092915050565b600060208201905081810360008301526113e38161103d565b9050919050565b60006020820190508181036000830152611403816110a3565b9050919050565b6000602082019050818103600083015261142381611109565b9050919050565b6000602082019050818103600083015261144381611149565b9050919050565b60006020820190508181036000830152611463816111af565b9050919050565b6000602082019050818103600083015261148381611215565b9050919050565b600060208201905061149f600083018461127b565b92915050565b6000610120820190506114bb600083018c61127b565b6114c8602083018b610f9b565b6114d5604083018a61127b565b6114e2606083018961127b565b6114ef608083018861127b565b6114fc60a083018761127b565b61150960c083018661127b565b61151660e0830185610faa565b611524610100830184610faa565b9a9950505050505050505050565b6000604051905081810181811067ffffffffffffffff82111715611559576115586117ea565b5b8060405250919050565b600067ffffffffffffffff82111561157e5761157d6117ea565b5b602082029050602081019050919050565b600067ffffffffffffffff8211156115aa576115a96117ea565b5b602082029050602081019050919050565b600067ffffffffffffffff8211156115d6576115d56117ea565b5b602082029050602081019050919050565b600067ffffffffffffffff821115611602576116016117ea565b5b602082029050602081019050919050565b600067ffffffffffffffff82111561162e5761162d6117ea565b5b601f19601f8301169050602081019050919050565b600067ffffffffffffffff82111561165e5761165d6117ea565b5b601f19601f8301169050602081019050919050565b600081519050919050565b600082825260208201905092915050565b600061169a826116ca565b9050919050565b60008115159050919050565b6000819050919050565b60008190506116c5826117fd565b919050565b600073ffffffffffffffffffffffffffffffffffffffff82169050919050565b6000819050919050565b60006116ff82611784565b9050919050565b600061171182611718565b9050919050565b6000611723826116ca565b9050919050565b60006117358261173c565b9050919050565b6000611747826116ca565b9050919050565b600061175982611760565b9050919050565b600061176b826116ca565b9050919050565b600061177d826116b7565b9050919050565b600061178f82611796565b9050919050565b60006117a1826116ca565b9050919050565b82818337600083830152505050565b60005b838110156117d55780820151818401526020810190506117ba565b838111156117e4576000848401525b50505050565bfe5b6000601f19601f8301169050919050565b6008811061180e5761180d6117ea565b5b50565b61181a8161168f565b811461182557600080fd5b50565b611831816116a1565b811461183c57600080fd5b50565b611848816116ea565b811461185357600080fd5b5056fea26469706673582212203cad82b657ac588fc019f2c57a4ae83a82b9065401bb91509d11ffea2948da6364736f6c63430007030033",
  "immutableReferences": {},
  "source": "// SPDX-License-Identifier: MIT\npragma solidity ^0.7.0;\npragma experimental ABIEncoderV2;\n\nimport '@openzeppelin/contracts/math/SafeMath.sol';\n\n/**\n * @title nWork Governance contract\n * @dev All contracts that will be owned by a Governor entity should extend this contract.\n */\ncontract Governor {\n    using SafeMath for uint256;\n\n    /**\n     * @dev the number of votes in support of a mint required in order for a quorum to be reached\n     */\n    function quorumVotes() public pure returns (uint256) { return 30000000; } // 3% of total supply\n\n    /**\n     * @dev the number of votes required in order for a voter to become a proposer\n     */\n    function proposalThreshold() public pure returns (uint256) { return 500000; } // 0.5% of total supply\n\n\n\n    // -- State --\n\n    // The official record of all proposals ever proposed\n    mapping (uint => Proposal) public proposals;\n\n    // The latest proposal for each proposer\n    mapping (address => uint) public latestProposalIds;\n\n    // The EIP-712 typehash for the contract's domain\n    bytes32 public constant DOMAIN_TYPEHASH = keccak256(\"EIP712Domain(string name,uint256 chainId,address verifyingContract)\");\n\n    // The EIP-712 typehash for the ballot struct used by the contract\n    bytes32 public constant BALLOT_TYPEHASH = keccak256(\"Ballot(uint256 proposalId,bool support)\");\n\n    uint256 public proposalCount;\n\n    TreasuryInterface public treasury;\n\n    NwkInterface public nwk;\n\n    NwkCoreInterface public nwkApp;\n\n    // Possible states that a proposal may be in\n    enum ProposalState {\n        Pending,\n        Active,\n        Canceled,\n        Defeated,\n        Succeeded,\n        Queued,\n        Expired,\n        Executed\n    }\n\n\n    // -- Events --\n\n    // An event emitted when a new proposal is created\n    event ProposalCreated(uint256 id, address proposer, address[] targets, uint[] values, string[] signatures, bytes[] calldatas, uint256 startBlock, uint256 endBlock, string description);\n\n    // An event emitted when a vote has been cast on a proposal\n    event VoteCast(address voter, uint256 proposalId, bool support, uint256 votes);\n\n    // An event emitted when a proposal has been canceled\n    event ProposalCanceled(uint256 id);\n\n    // An event emitted when a proposal has been queued in the Timelock\n    event ProposalQueued(uint256 id, uint256 eta);\n\n    // An event emitted when a proposal has been executed in the Timelock\n    event ProposalExecuted(uint256 id);\n\n    struct Proposal {\n        // Unique id for looking up a proposal\n        uint256 id;\n\n        // Creator of the proposal;\n        address proposer;\n\n        // The timestamp that the proposal will be available for execution, set once the vote succeeds\n        uint256 eta;\n\n        // The ordered list of target addresses for calls to be made\n        address[] targets;\n\n        // The ordered list of values (i.e. msg.value) to be passed to the calls to be made\n        uint256[] values;\n\n        // The ordered list of function signatures to be called\n        string[] signatures;\n\n        // The ordered list of calldata to be passed to each call\n        bytes[] calldatas;\n\n        // The block at which voting begins: holders must delegate their votes prior to this block\n        uint startBlock;\n\n        // The block at which voting ends: votes must be cast prior to this block\n        uint endBlock;\n\n        // Current number of votes in favor of this proposal\n        uint256 forVotes;\n\n        // Current number of votes in opposition to this proposal\n        uint256 againstVotes;\n\n        // Flag marking whether the proposal has been canceled\n        bool canceled;\n\n        // Flag marking whether the proposal has been executed\n        bool executed;\n\n        // Receipts of ballots for the entire set of voters\n        mapping (address => Receipt) receipts;\n    }\n\n    // Ballot receipt record for a voter\n    struct Receipt {\n        // Whether or not a vote has been cast\n        bool hasVoted;\n\n        // Whether or not the voter supports the proposal\n        bool support;\n\n        // The number of votes the voter had, which were cast\n        uint256 votes;\n    }\n\n\n    constructor(address _treasury, address _nwk, address _nwkCore) {\n        treasury = TreasuryInterface(_treasury);\n        nwk = NwkInterface(_nwk);\n        nwkApp = NwkCoreInterface(_nwkCore);\n    }\n\n    /**\n     * @dev This function returns the status of the proposal\n     * @param proposalId The id of the proposal \n     */\n    function state(uint256 proposalId) public view returns (ProposalState) {\n        require(proposalCount >= proposalId && proposalId > 0, \"Governor::state: invalid proposal id\");\n        Proposal storage proposal = proposals[proposalId];\n        if (proposal.canceled) {\n            return ProposalState.Canceled;\n        } else if (block.number <= proposal.startBlock) {\n            return ProposalState.Pending;\n        } else if (block.number <= proposal.endBlock) {\n            return ProposalState.Active;\n        } else if (proposal.forVotes <= proposal.againstVotes || proposal.forVotes < quorumVotes()) {\n            return ProposalState.Defeated;\n        } else if (proposal.eta == 0) {\n            return ProposalState.Succeeded;\n        } else if (proposal.executed) {\n            return ProposalState.Executed;\n        } else if (block.timestamp >= SafeMath.add(proposal.eta, treasury.GRACE_PERIOD())) {\n            return ProposalState.Expired;\n        } else {\n            return ProposalState.Queued;\n        }\n    }\n\n    function propose(address[] memory targets, uint[] memory values, string[] memory signatures, bytes[] memory calldatas, string memory description) public returns (uint256) {\n        require(nwk.getPriorVotes(msg.sender, SafeMath.sub(block.number, 1)) > proposalThreshold(), \"Governor::propose: proposer votes below proposal threshold\");\n\t\trequire(targets.length == values.length && targets.length == signatures.length && targets.length == calldatas.length, \"Governor::propose: proposal function information arity mismatch\");\n        \n        /*require(targets.length == values.length && targets.length == signatures.length && targets.length == calldatas.length, \"GovernorAlpha::propose: proposal function information arity mismatch\");\n        require(targets.length != 0, \"GovernorAlpha::propose: must provide actions\");\n        require(targets.length <= proposalMaxOperations(), \"GovernorAlpha::propose: too many actions\");\n\n        uint latestProposalId = latestProposalIds[msg.sender];\n        if (latestProposalId != 0) {\n          ProposalState proposersLatestProposalState = state(latestProposalId);\n          require(proposersLatestProposalState != ProposalState.Active, \"GovernorAlpha::propose: one live proposal per proposer, found an already active proposal\");\n          require(proposersLatestProposalState != ProposalState.Pending, \"GovernorAlpha::propose: one live proposal per proposer, found an already pending proposal\");\n        }\n\n        uint startBlock = add256(block.number, votingDelay());\n        uint endBlock = add256(startBlock, votingPeriod());\n\n        proposalCount++;\n        Proposal memory newProposal = Proposal({\n            id: proposalCount,\n            proposer: msg.sender,\n            eta: 0,\n            targets: targets,\n            values: values,\n            signatures: signatures,\n            calldatas: calldatas,\n            startBlock: startBlock,\n            endBlock: endBlock,\n            forVotes: 0,\n            againstVotes: 0,\n            canceled: false,\n            executed: false\n        });\n\n        proposals[newProposal.id] = newProposal;\n        latestProposalIds[newProposal.proposer] = newProposal.id;\n\n        emit ProposalCreated(newProposal.id, msg.sender, targets, values, signatures, calldatas, startBlock, endBlock, description);\n        return newProposal.id;\n        */\n    }\n\n    function castVote(uint256 proposalId, bool support) public {\n        return _castVote(msg.sender, proposalId, support);\n    }\n\n    function _castVote(address voter, uint proposalId, bool support) internal {\n        require(state(proposalId) == ProposalState.Active, \"Governor::_castVote: voting is closed\");\n        Proposal storage proposal = proposals[proposalId];\n        Receipt storage receipt = proposal.receipts[voter];\n        require(receipt.hasVoted == false, \"Governor::_castVote: voter already voted\");\n        uint256 votes = nwk.getPriorVotes(voter, proposal.startBlock);\n\n        if (support) {\n            proposal.forVotes = SafeMath.add(proposal.forVotes, votes);\n        } else {\n            proposal.againstVotes = SafeMath.add(proposal.againstVotes, votes);\n        }\n\n        receipt.hasVoted = true;\n        receipt.support = support;\n        receipt.votes = votes;\n\n        emit VoteCast(voter, proposalId, support, votes);\n    }\n}\n\ninterface TreasuryInterface {\n    function GRACE_PERIOD() external view returns (uint256);\n    function executeTransaction(address target, uint256 value, string calldata signature, bytes calldata data, uint256 eta) external payable returns (bytes memory);\n}\n\ninterface NwkInterface {\n    function getPriorVotes(address account, uint256 blockNumber) external view returns (uint256);\n}\n\ninterface NwkCoreInterface {\n    function takeJob() external view;\n}\n",
  "sourcePath": "/home/simon/nWork/nWork/contracts/Governor.sol",
  "compiler": {
    "name": "solc",
    "version": "0.7.3+commit.9bfce1f6.Emscripten.clang"
  },
  "schemaVersion": "3.3.2",
  "updatedAt": "2021-01-10T22:29:01.323Z",
  "devdoc": {
    "details": "All contracts that will be owned by a Governor entity should extend this contract.",
    "kind": "dev",
    "methods": {
      "proposalThreshold()": {
        "details": "the number of votes required in order for a voter to become a proposer"
      },
      "quorumVotes()": {
        "details": "the number of votes in support of a mint required in order for a quorum to be reached"
      },
      "state(uint256)": {
        "details": "This function returns the status of the proposal",
        "params": {
          "proposalId": "The id of the proposal "
        }
      }
    },
    "title": "nWork Governance contract",
    "version": 1
  },
  "userdoc": {
    "kind": "user",
    "methods": {},
    "version": 1
  }
}