{
  "contractName": "nWork",
  "abi": [
    {
      "inputs": [
        {
          "internalType": "address",
          "name": "_treasury",
          "type": "address"
        }
      ],
      "stateMutability": "nonpayable",
      "type": "constructor"
    },
    {
      "inputs": [],
      "name": "jobCount",
      "outputs": [
        {
          "internalType": "uint256",
          "name": "",
          "type": "uint256"
        }
      ],
      "stateMutability": "view",
      "type": "function"
    },
    {
      "inputs": [],
      "name": "treasury",
      "outputs": [
        {
          "internalType": "address",
          "name": "",
          "type": "address"
        }
      ],
      "stateMutability": "view",
      "type": "function"
    },
    {
      "inputs": [
        {
          "internalType": "string",
          "name": "_ipfsID",
          "type": "string"
        }
      ],
      "name": "takeJob",
      "outputs": [],
      "stateMutability": "nonpayable",
      "type": "function"
    },
    {
      "inputs": [
        {
          "internalType": "string",
          "name": "_ipfsID",
          "type": "string"
        }
      ],
      "name": "getJobState",
      "outputs": [
        {
          "internalType": "enum nWork.JobState",
          "name": "",
          "type": "uint8"
        }
      ],
      "stateMutability": "view",
      "type": "function"
    },
    {
      "inputs": [
        {
          "internalType": "string",
          "name": "_ipfsID",
          "type": "string"
        },
        {
          "internalType": "uint256",
          "name": "_baseFee",
          "type": "uint256"
        },
        {
          "internalType": "uint256",
          "name": "_tip",
          "type": "uint256"
        }
      ],
      "name": "createJob",
      "outputs": [],
      "stateMutability": "nonpayable",
      "type": "function"
    },
    {
      "inputs": [],
      "name": "removeJob",
      "outputs": [],
      "stateMutability": "nonpayable",
      "type": "function"
    },
    {
      "inputs": [],
      "name": "reviewJob",
      "outputs": [],
      "stateMutability": "nonpayable",
      "type": "function"
    },
    {
      "inputs": [
        {
          "internalType": "string",
          "name": "_ipfsID",
          "type": "string"
        },
        {
          "internalType": "bool",
          "name": "_approve",
          "type": "bool"
        }
      ],
      "name": "reviewJob",
      "outputs": [],
      "stateMutability": "nonpayable",
      "type": "function"
    },
    {
      "inputs": [],
      "name": "payReviewers",
      "outputs": [],
      "stateMutability": "nonpayable",
      "type": "function"
    }
  ],
  "bytecode": "0x608060405234801561001057600080fd5b506040516106223803806106228339818101604052602081101561003357600080fd5b810190808051906020019092919050505080600260006101000a81548173ffffffffffffffffffffffffffffffffffffffff021916908373ffffffffffffffffffffffffffffffffffffffff1602179055505061058d806100956000396000f3fe608060405234801561001057600080fd5b50600436106100935760003560e01c806379c627111161006657806379c62711146100fe57806390e7e99e146101cd5780639799b764146101d7578063cee9370f14610292578063ffd5d2ca1461035957610093565b80630aa44731146100985780634c5d8a0f146100a257806357cb2727146100c057806361d027b3146100ca575b600080fd5b6100a0610433565b005b6100aa610435565b6040518082815260200191505060405180910390f35b6100c861043b565b005b6100d26104e3565b604051808273ffffffffffffffffffffffffffffffffffffffff16815260200191505060405180910390f35b6101cb6004803603606081101561011457600080fd5b810190808035906020019064010000000081111561013157600080fd5b82018360208201111561014357600080fd5b8035906020019184600183028401116401000000008311171561016557600080fd5b91908080601f016020809104026020016040519081016040528093929190818152602001838380828437600081840152601f19601f8201169050808301925050505050505091929192908035906020019092919080359060200190929190505050610509565b005b6101d561050e565b005b610290600480360360208110156101ed57600080fd5b810190808035906020019064010000000081111561020a57600080fd5b82018360208201111561021c57600080fd5b8035906020019184600183028401116401000000008311171561023e57600080fd5b91908080601f016020809104026020016040519081016040528093929190818152602001838380828437600081840152601f19601f820116905080830192505050505050509192919290505050610510565b005b610357600480360360408110156102a857600080fd5b81019080803590602001906401000000008111156102c557600080fd5b8201836020820111156102d757600080fd5b803590602001918460018302840111640100000000831117156102f957600080fd5b91908080601f016020809104026020016040519081016040528093929190818152602001838380828437600081840152601f19601f820116905080830192505050505050509192919290803515159060200190929190505050610513565b005b6104126004803603602081101561036f57600080fd5b810190808035906020019064010000000081111561038c57600080fd5b82018360208201111561039e57600080fd5b803590602001918460018302840111640100000000831117156103c057600080fd5b91908080601f016020809104026020016040519081016040528093929190818152602001838380828437600081840152601f19601f820116905080830192505050505050509192919290505050610517565b6040518082600381111561042257fe5b815260200191505060405180910390f35b565b60015481565b600260009054906101000a900473ffffffffffffffffffffffffffffffffffffffff1673ffffffffffffffffffffffffffffffffffffffff163373ffffffffffffffffffffffffffffffffffffffff16146104e1576040517f08c379a000000000000000000000000000000000000000000000000000000000815260040180806020018281038252603981526020018061051f6039913960400191505060405180910390fd5b565b600260009054906101000a900473ffffffffffffffffffffffffffffffffffffffff1681565b505050565b565b50565b5050565b600091905056fe6e576f726b3a3a7061795265766965776572733a206f6e6c792074726561737572792063616e2063616c6c20746869732066756e6374696f6ea2646970667358221220f60568587ccce69ef49a103d9909120d28775ecb0215135115f1439b1effd4c964736f6c63430007030033",
  "immutableReferences": {},
  "source": "// SPDX-License-Identifier: MIT\n\npragma solidity ^0.7.0;\n\nimport '@openzeppelin/contracts/math/SafeMath.sol';\n\ncontract nWork {\n    using SafeMath for uint256;\n    \n    mapping (string => Job) jobs;\n    uint256 public jobCount;\n\taddress public treasury;\n\n    struct Job {\n        // Unique id for each job\n        string ipfsID;\n\n        // Creator of the job listing\n        address employer;\n\n        // Max contractors per job\n        uint256 maxContractors;\n\n        // Min contractors per job\n        uint256 minContractors;\n\n        // Contractors enrolled in the job\n        mapping (address => bool) contractors;\n\n        // Reviewers enrolled in the job\n        mapping (address => bool) reviewers;\n    }\n\n    struct Review {\n        address reviewer;\n    }\n\n    // Possible states that the Contractor may be in for a specific job\n    enum ContractorJobState {\n        Cancelled,\n        Pending,\n        Completed\n    }\n\n    // Possible states that the job may be in\n    enum JobState {\n        Active,\n        Canceled,\n        Expired,\n        Completed\n    }\n\n    constructor(address _treasury) {\n        treasury = _treasury;\n    }\n\n    /**\n     * @dev Review calls this function to approve/disapprove job done by contractor\n     */\n    function reviewJob(string memory _ipfsID, bool _approve) public {\n        // Add caller to mapping of reviewers\n\n        // Caller cannot review a job multiple times\n\n    }\n\n    function takeJob(string memory _ipfsID) public {\n        // Cannot have too many contractors for a job. Limit created by employer\n    }\n\n    /**\n     * @dev Get the current state of the job\n     */\n    function getJobState(string memory _ipfsID) public view returns (JobState){\n    }\n\n    /**\n     * @dev\n     * @param _ipfsID Unique ID that points to storage in ipfs\n     */\n    function createJob(string memory _ipfsID, uint256 _baseFee, uint256 _tip) public {\n        // Has to pay a minimum base fee\n\n        // Optional tip that will be paid to reviewer \n\n    }\n\n    function removeJob() public {\n\n    }\n\n    function reviewJob() public {\n\n    }\n\n    function payReviewers() public {\n        // Can only be called by the treasury\n        require(msg.sender == treasury, \"nWork::payReviewers: only treasury can call this function\");\n\n        // Check \n    }\n}\n",
  "sourcePath": "/home/simon/nWork/nWork/contracts/nWork.sol",
  "compiler": {
    "name": "solc",
    "version": "0.7.3+commit.9bfce1f6.Emscripten.clang"
  },
  "schemaVersion": "3.3.2",
  "updatedAt": "2021-01-10T22:29:01.358Z",
  "devdoc": {
    "kind": "dev",
    "methods": {
      "createJob(string,uint256,uint256)": {
        "details": "@param _ipfsID Unique ID that points to storage in ipfs"
      },
      "getJobState(string)": {
        "details": "Get the current state of the job"
      },
      "reviewJob(string,bool)": {
        "details": "Review calls this function to approve/disapprove job done by contractor"
      }
    },
    "version": 1
  },
  "userdoc": {
    "kind": "user",
    "methods": {},
    "version": 1
  }
}