{
  "contractName": "nWork",
  "abi": [
    {
      "inputs": [
        {
          "internalType": "address",
          "name": "_treasury",
          "type": "address"
        }
      ],
      "stateMutability": "nonpayable",
      "type": "constructor"
    },
    {
      "inputs": [
        {
          "internalType": "string",
          "name": "_ipfsID",
          "type": "string"
        },
        {
          "internalType": "bool",
          "name": "_approve",
          "type": "bool"
        }
      ],
      "name": "reviewJob",
      "outputs": [],
      "stateMutability": "nonpayable",
      "type": "function"
    },
    {
      "inputs": [
        {
          "internalType": "string",
          "name": "_ipfsID",
          "type": "string"
        }
      ],
      "name": "takeJob",
      "outputs": [],
      "stateMutability": "nonpayable",
      "type": "function"
    },
    {
      "inputs": [
        {
          "internalType": "string",
          "name": "_ipfsID",
          "type": "string"
        },
        {
          "internalType": "uint256",
          "name": "_baseFee",
          "type": "uint256"
        },
        {
          "internalType": "uint256",
          "name": "_tip",
          "type": "uint256"
        }
      ],
      "name": "createJob",
      "outputs": [],
      "stateMutability": "nonpayable",
      "type": "function"
    },
    {
      "inputs": [],
      "name": "removeJob",
      "outputs": [],
      "stateMutability": "nonpayable",
      "type": "function"
    },
    {
      "inputs": [],
      "name": "payReviewers",
      "outputs": [],
      "stateMutability": "nonpayable",
      "type": "function"
    }
  ],
  "bytecode": "0x608060405234801561001057600080fd5b5060405161047b38038061047b8339818101604052602081101561003357600080fd5b810190808051906020019092919050505080600160006101000a81548173ffffffffffffffffffffffffffffffffffffffff021916908373ffffffffffffffffffffffffffffffffffffffff160217905550506103e6806100956000396000f3fe608060405234801561001057600080fd5b50600436106100575760003560e01c80630aa447311461005c57806357cb27271461006657806379c62711146100705780639799b7641461013f578063cee9370f146101fa575b600080fd5b6100646102c1565b005b61006e6102c3565b005b61013d6004803603606081101561008657600080fd5b81019080803590602001906401000000008111156100a357600080fd5b8201836020820111156100b557600080fd5b803590602001918460018302840111640100000000831117156100d757600080fd5b91908080601f016020809104026020016040519081016040528093929190818152602001838380828437600081840152601f19601f820116905080830192505050505050509192919290803590602001909291908035906020019092919050505061036b565b005b6101f86004803603602081101561015557600080fd5b810190808035906020019064010000000081111561017257600080fd5b82018360208201111561018457600080fd5b803590602001918460018302840111640100000000831117156101a657600080fd5b91908080601f016020809104026020016040519081016040528093929190818152602001838380828437600081840152601f19601f820116905080830192505050505050509192919290505050610370565b005b6102bf6004803603604081101561021057600080fd5b810190808035906020019064010000000081111561022d57600080fd5b82018360208201111561023f57600080fd5b8035906020019184600183028401116401000000008311171561026157600080fd5b91908080601f016020809104026020016040519081016040528093929190818152602001838380828437600081840152601f19601f820116905080830192505050505050509192919290803515159060200190929190505050610373565b005b565b600160009054906101000a900473ffffffffffffffffffffffffffffffffffffffff1673ffffffffffffffffffffffffffffffffffffffff163373ffffffffffffffffffffffffffffffffffffffff1614610369576040517f08c379a00000000000000000000000000000000000000000000000000000000081526004018080602001828103825260398152602001806103786039913960400191505060405180910390fd5b565b505050565b50565b505056fe6e576f726b3a3a7061795265766965776572733a206f6e6c792074726561737572792063616e2063616c6c20746869732066756e6374696f6ea2646970667358221220879b931ce504a48ca144db4efea22838ae85479b84af1a0f0d5ba86c5da3e4ac64736f6c63430007000033",
  "immutableReferences": {},
  "source": "pragma solidity ^0.7.0;\n\nimport '@openzeppelin/contracts/math/SafeMath.sol';\n\ncontract nWork {\n    using SafeMath for uint256;\n\n    struct Job {\n        // Unique id for each job\n        string ipfsID;\n\n        // Creator of the job listing\n        address employer;\n\n        // Max contractors per job\n        uint256 maxContractors;\n    }\n\n    mapping (string => Job) jobs;\n\taddress treasury;\n\n    constructor(address _treasury) {\n        treasury = _treasury;\n    }\n\n    /**\n     * @dev Review calls this function to approve/disapprove job done by contractor\n     */\n    function reviewJob(string memory _ipfsID, bool _approve) public {\n        // Add caller to mapping of reviewers\n\n        // Caller cannot review a job multiple times\n\n    }\n\n    function takeJob(string memory _ipfsID) public {\n        // Cannot have too many contractors for a job. Limit created by employer\n    }\n\n    /**\n     * @dev\n     * @param _ipfsID Unique ID that points to storage in ipfs\n     */\n    function createJob(string memory _ipfsID, uint256 _baseFee, uint256 _tip) public {\n        // Has to pay a minimum base fee\n\n        // Optional tip that will be paid to reviewer \n\n    }\n\n    function removeJob() public {\n\n    }\n\n    function payReviewers() public {\n        // Can only be called by the treasury\n        require(msg.sender == treasury, \"nWork::payReviewers: only treasury can call this function\");\n    }\n}\n",
  "sourcePath": "/home/simon/nWorkApp/nWork/contracts/nWork.sol",
  "compiler": {
    "name": "solc",
    "version": "0.7.0+commit.9e61f92b.Emscripten.clang"
  },
  "schemaVersion": "3.3.2",
  "updatedAt": "2021-01-03T01:02:17.465Z",
  "devdoc": {
    "kind": "dev",
    "methods": {
      "createJob(string,uint256,uint256)": {
        "details": "@param _ipfsID Unique ID that points to storage in ipfs"
      },
      "reviewJob(string,bool)": {
        "details": "Review calls this function to approve/disapprove job done by contractor"
      }
    },
    "version": 1
  },
  "userdoc": {
    "kind": "user",
    "methods": {},
    "version": 1
  }
}