{
  "contractName": "nWorkToken",
  "abi": [
    {
      "inputs": [
        {
          "internalType": "address",
          "name": "_account",
          "type": "address"
        },
        {
          "internalType": "address",
          "name": "_minter",
          "type": "address"
        },
        {
          "internalType": "uint256",
          "name": "_initialSupplyDev",
          "type": "uint256"
        },
        {
          "internalType": "uint256",
          "name": "_initialSupplyMinter",
          "type": "uint256"
        },
        {
          "internalType": "uint256",
          "name": "_mintingAllowedAfter",
          "type": "uint256"
        }
      ],
      "stateMutability": "nonpayable",
      "type": "constructor"
    },
    {
      "anonymous": false,
      "inputs": [
        {
          "indexed": true,
          "internalType": "address",
          "name": "owner",
          "type": "address"
        },
        {
          "indexed": true,
          "internalType": "address",
          "name": "spender",
          "type": "address"
        },
        {
          "indexed": false,
          "internalType": "uint256",
          "name": "amount",
          "type": "uint256"
        }
      ],
      "name": "Approval",
      "type": "event"
    },
    {
      "anonymous": false,
      "inputs": [
        {
          "indexed": true,
          "internalType": "address",
          "name": "delegator",
          "type": "address"
        },
        {
          "indexed": true,
          "internalType": "address",
          "name": "fromDelegate",
          "type": "address"
        },
        {
          "indexed": true,
          "internalType": "address",
          "name": "toDelegate",
          "type": "address"
        }
      ],
      "name": "DelegateChanged",
      "type": "event"
    },
    {
      "anonymous": false,
      "inputs": [
        {
          "indexed": true,
          "internalType": "address",
          "name": "delegate",
          "type": "address"
        },
        {
          "indexed": false,
          "internalType": "uint256",
          "name": "previousBalance",
          "type": "uint256"
        },
        {
          "indexed": false,
          "internalType": "uint256",
          "name": "newBalance",
          "type": "uint256"
        }
      ],
      "name": "DelegateVotesChanged",
      "type": "event"
    },
    {
      "anonymous": false,
      "inputs": [
        {
          "indexed": false,
          "internalType": "address",
          "name": "minter",
          "type": "address"
        },
        {
          "indexed": false,
          "internalType": "address",
          "name": "newMinter",
          "type": "address"
        }
      ],
      "name": "MinterChanged",
      "type": "event"
    },
    {
      "anonymous": false,
      "inputs": [
        {
          "indexed": true,
          "internalType": "address",
          "name": "from",
          "type": "address"
        },
        {
          "indexed": true,
          "internalType": "address",
          "name": "to",
          "type": "address"
        },
        {
          "indexed": false,
          "internalType": "uint256",
          "name": "amount",
          "type": "uint256"
        }
      ],
      "name": "Transfer",
      "type": "event"
    },
    {
      "inputs": [],
      "name": "DELEGATION_TYPEHASH",
      "outputs": [
        {
          "internalType": "bytes32",
          "name": "",
          "type": "bytes32"
        }
      ],
      "stateMutability": "view",
      "type": "function"
    },
    {
      "inputs": [],
      "name": "PERMIT_TYPEHASH",
      "outputs": [
        {
          "internalType": "bytes32",
          "name": "",
          "type": "bytes32"
        }
      ],
      "stateMutability": "view",
      "type": "function"
    },
    {
      "inputs": [
        {
          "internalType": "address",
          "name": "",
          "type": "address"
        },
        {
          "internalType": "uint256",
          "name": "",
          "type": "uint256"
        }
      ],
      "name": "checkpoints",
      "outputs": [
        {
          "internalType": "uint32",
          "name": "fromBlock",
          "type": "uint32"
        },
        {
          "internalType": "uint256",
          "name": "votes",
          "type": "uint256"
        }
      ],
      "stateMutability": "view",
      "type": "function"
    },
    {
      "inputs": [],
      "name": "decimals",
      "outputs": [
        {
          "internalType": "uint8",
          "name": "",
          "type": "uint8"
        }
      ],
      "stateMutability": "view",
      "type": "function"
    },
    {
      "inputs": [
        {
          "internalType": "address",
          "name": "",
          "type": "address"
        }
      ],
      "name": "delegates",
      "outputs": [
        {
          "internalType": "address",
          "name": "",
          "type": "address"
        }
      ],
      "stateMutability": "view",
      "type": "function"
    },
    {
      "inputs": [],
      "name": "minimumTimeBetweenMints",
      "outputs": [
        {
          "internalType": "uint256",
          "name": "",
          "type": "uint256"
        }
      ],
      "stateMutability": "view",
      "type": "function"
    },
    {
      "inputs": [],
      "name": "mintCap",
      "outputs": [
        {
          "internalType": "uint8",
          "name": "",
          "type": "uint8"
        }
      ],
      "stateMutability": "view",
      "type": "function"
    },
    {
      "inputs": [],
      "name": "mintingAllowedAfter",
      "outputs": [
        {
          "internalType": "uint256",
          "name": "",
          "type": "uint256"
        }
      ],
      "stateMutability": "view",
      "type": "function"
    },
    {
      "inputs": [],
      "name": "name",
      "outputs": [
        {
          "internalType": "string",
          "name": "",
          "type": "string"
        }
      ],
      "stateMutability": "view",
      "type": "function"
    },
    {
      "inputs": [
        {
          "internalType": "address",
          "name": "",
          "type": "address"
        }
      ],
      "name": "nonces",
      "outputs": [
        {
          "internalType": "uint256",
          "name": "",
          "type": "uint256"
        }
      ],
      "stateMutability": "view",
      "type": "function"
    },
    {
      "inputs": [
        {
          "internalType": "address",
          "name": "",
          "type": "address"
        }
      ],
      "name": "numCheckpoints",
      "outputs": [
        {
          "internalType": "uint256",
          "name": "",
          "type": "uint256"
        }
      ],
      "stateMutability": "view",
      "type": "function"
    },
    {
      "inputs": [],
      "name": "symbol",
      "outputs": [
        {
          "internalType": "string",
          "name": "",
          "type": "string"
        }
      ],
      "stateMutability": "view",
      "type": "function"
    },
    {
      "inputs": [],
      "name": "totalSupply",
      "outputs": [
        {
          "internalType": "uint256",
          "name": "",
          "type": "uint256"
        }
      ],
      "stateMutability": "view",
      "type": "function"
    },
    {
      "inputs": [
        {
          "internalType": "address",
          "name": "_minter",
          "type": "address"
        }
      ],
      "name": "setMinter",
      "outputs": [],
      "stateMutability": "nonpayable",
      "type": "function"
    },
    {
      "inputs": [
        {
          "internalType": "address",
          "name": "_dst",
          "type": "address"
        },
        {
          "internalType": "uint256",
          "name": "_amount",
          "type": "uint256"
        }
      ],
      "name": "mint",
      "outputs": [],
      "stateMutability": "nonpayable",
      "type": "function"
    },
    {
      "inputs": [
        {
          "internalType": "address",
          "name": "_account",
          "type": "address"
        },
        {
          "internalType": "address",
          "name": "_spender",
          "type": "address"
        }
      ],
      "name": "allowance",
      "outputs": [
        {
          "internalType": "uint256",
          "name": "",
          "type": "uint256"
        }
      ],
      "stateMutability": "view",
      "type": "function"
    },
    {
      "inputs": [
        {
          "internalType": "address",
          "name": "_spender",
          "type": "address"
        },
        {
          "internalType": "uint256",
          "name": "_amount",
          "type": "uint256"
        }
      ],
      "name": "approve",
      "outputs": [
        {
          "internalType": "bool",
          "name": "",
          "type": "bool"
        }
      ],
      "stateMutability": "nonpayable",
      "type": "function"
    },
    {
      "inputs": [
        {
          "internalType": "address",
          "name": "_owner",
          "type": "address"
        },
        {
          "internalType": "address",
          "name": "_spender",
          "type": "address"
        },
        {
          "internalType": "uint256",
          "name": "_value",
          "type": "uint256"
        },
        {
          "internalType": "uint256",
          "name": "_deadline",
          "type": "uint256"
        },
        {
          "internalType": "uint8",
          "name": "_v",
          "type": "uint8"
        },
        {
          "internalType": "bytes32",
          "name": "_r",
          "type": "bytes32"
        },
        {
          "internalType": "bytes32",
          "name": "_s",
          "type": "bytes32"
        }
      ],
      "name": "permit",
      "outputs": [],
      "stateMutability": "nonpayable",
      "type": "function"
    },
    {
      "inputs": [
        {
          "internalType": "address",
          "name": "_account",
          "type": "address"
        }
      ],
      "name": "balanceOf",
      "outputs": [
        {
          "internalType": "uint256",
          "name": "",
          "type": "uint256"
        }
      ],
      "stateMutability": "view",
      "type": "function"
    },
    {
      "inputs": [
        {
          "internalType": "address",
          "name": "_dst",
          "type": "address"
        },
        {
          "internalType": "uint256",
          "name": "_amount",
          "type": "uint256"
        }
      ],
      "name": "transfer",
      "outputs": [
        {
          "internalType": "bool",
          "name": "",
          "type": "bool"
        }
      ],
      "stateMutability": "nonpayable",
      "type": "function"
    },
    {
      "inputs": [
        {
          "internalType": "address",
          "name": "_src",
          "type": "address"
        },
        {
          "internalType": "address",
          "name": "_dst",
          "type": "address"
        },
        {
          "internalType": "uint256",
          "name": "_amount",
          "type": "uint256"
        }
      ],
      "name": "transferFrom",
      "outputs": [
        {
          "internalType": "bool",
          "name": "",
          "type": "bool"
        }
      ],
      "stateMutability": "nonpayable",
      "type": "function"
    },
    {
      "inputs": [
        {
          "internalType": "address",
          "name": "_delegatee",
          "type": "address"
        }
      ],
      "name": "delegate",
      "outputs": [],
      "stateMutability": "nonpayable",
      "type": "function"
    },
    {
      "inputs": [
        {
          "internalType": "address",
          "name": "_account",
          "type": "address"
        },
        {
          "internalType": "uint256",
          "name": "_blockNumber",
          "type": "uint256"
        }
      ],
      "name": "getPriorVotes",
      "outputs": [
        {
          "internalType": "uint256",
          "name": "",
          "type": "uint256"
        }
      ],
      "stateMutability": "view",
      "type": "function"
    }
  ],
  "bytecode": "0x60806040526b033b2e3c9fd0803ce800000060005562278d0060055534801561002757600080fd5b50604051612ded380380612ded833981810160405260a081101561004a57600080fd5b810190808051906020019092919080519060200190929190805190602001909291908051906020019092919080519060200190929190505050428110156100dc576040517f08c379a0000000000000000000000000000000000000000000000000000000008152600401808060200182810382526039815260200180612db46039913960400191505060405180910390fd5b82600860008773ffffffffffffffffffffffffffffffffffffffff1673ffffffffffffffffffffffffffffffffffffffff168152602001908152602001600020819055508473ffffffffffffffffffffffffffffffffffffffff16600073ffffffffffffffffffffffffffffffffffffffff167fddf252ad1be2c89b69c2b068fc378daa952ba7f163c4a11628f55a4df523b3ef856040518082815260200191505060405180910390a381600860008673ffffffffffffffffffffffffffffffffffffffff1673ffffffffffffffffffffffffffffffffffffffff168152602001908152602001600020819055508373ffffffffffffffffffffffffffffffffffffffff16600073ffffffffffffffffffffffffffffffffffffffff167fddf252ad1be2c89b69c2b068fc378daa952ba7f163c4a11628f55a4df523b3ef846040518082815260200191505060405180910390a383600360006101000a81548173ffffffffffffffffffffffffffffffffffffffff021916908373ffffffffffffffffffffffffffffffffffffffff1602179055507f3b0007eb941cf645526cbb3a4fdaecda9d28ce4843167d9263b536a1f1edc0f66000600360009054906101000a900473ffffffffffffffffffffffffffffffffffffffff16604051808373ffffffffffffffffffffffffffffffffffffffff1681526020018273ffffffffffffffffffffffffffffffffffffffff1681526020019250505060405180910390a1806004819055505050505050612a9a8061031a6000396000f3fe608060405234801561001057600080fd5b506004361061014d5760003560e01c80635c19a95c116100c357806395d89b411161007c57806395d89b4114610650578063a9059cbb146106d3578063d505accf14610737578063dd62ed3e146107d0578063e7a324dc14610848578063fca3b5aa146108665761014d565b80635c19a95c146104815780636fcfff45146104c557806370a082311461051d57806376c71ca114610575578063782d6fe1146105965780637ecebe00146105f85761014d565b806330adf81f1161011557806330adf81f1461034a57806330b36cef14610368578063313ce5671461038657806340c10f19146103a7578063587cde1e146103f55780635c11d62f146104635761014d565b806306fdde0314610152578063095ea7b3146101d55780630cdfebfa1461023957806318160ddd146102a857806323b872dd146102c6575b600080fd5b61015a6108aa565b6040518080602001828103825283818151815260200191508051906020019080838360005b8381101561019a57808201518184015260208101905061017f565b50505050905090810190601f1680156101c75780820380516001836020036101000a031916815260200191505b509250505060405180910390f35b610221600480360360408110156101eb57600080fd5b81019080803573ffffffffffffffffffffffffffffffffffffffff169060200190929190803590602001909291905050506108e3565b60405180821515815260200191505060405180910390f35b6102856004803603604081101561024f57600080fd5b81019080803573ffffffffffffffffffffffffffffffffffffffff169060200190929190803590602001909291905050506109d5565b604051808363ffffffff1681526020018281526020019250505060405180910390f35b6102b0610a16565b6040518082815260200191505060405180910390f35b610332600480360360608110156102dc57600080fd5b81019080803573ffffffffffffffffffffffffffffffffffffffff169060200190929190803573ffffffffffffffffffffffffffffffffffffffff16906020019092919080359060200190929190505050610a1c565b60405180821515815260200191505060405180910390f35b610352610c12565b6040518082815260200191505060405180910390f35b610370610c36565b6040518082815260200191505060405180910390f35b61038e610c3c565b604051808260ff16815260200191505060405180910390f35b6103f3600480360360408110156103bd57600080fd5b81019080803573ffffffffffffffffffffffffffffffffffffffff16906020019092919080359060200190929190505050610c41565b005b6104376004803603602081101561040b57600080fd5b81019080803573ffffffffffffffffffffffffffffffffffffffff169060200190929190505050610fdc565b604051808273ffffffffffffffffffffffffffffffffffffffff16815260200191505060405180910390f35b61046b61100f565b6040518082815260200191505060405180910390f35b6104c36004803603602081101561049757600080fd5b81019080803573ffffffffffffffffffffffffffffffffffffffff169060200190929190505050611015565b005b610507600480360360208110156104db57600080fd5b81019080803573ffffffffffffffffffffffffffffffffffffffff169060200190929190505050611022565b6040518082815260200191505060405180910390f35b61055f6004803603602081101561053357600080fd5b81019080803573ffffffffffffffffffffffffffffffffffffffff16906020019092919050505061103a565b6040518082815260200191505060405180910390f35b61057d611083565b604051808260ff16815260200191505060405180910390f35b6105e2600480360360408110156105ac57600080fd5b81019080803573ffffffffffffffffffffffffffffffffffffffff16906020019092919080359060200190929190505050611088565b6040518082815260200191505060405180910390f35b61063a6004803603602081101561060e57600080fd5b81019080803573ffffffffffffffffffffffffffffffffffffffff1690602001909291905050506113eb565b6040518082815260200191505060405180910390f35b610658611403565b6040518080602001828103825283818151815260200191508051906020019080838360005b8381101561069857808201518184015260208101905061067d565b50505050905090810190601f1680156106c55780820380516001836020036101000a031916815260200191505b509250505060405180910390f35b61071f600480360360408110156106e957600080fd5b81019080803573ffffffffffffffffffffffffffffffffffffffff1690602001909291908035906020019092919050505061143c565b60405180821515815260200191505060405180910390f35b6107ce600480360360e081101561074d57600080fd5b81019080803573ffffffffffffffffffffffffffffffffffffffff169060200190929190803573ffffffffffffffffffffffffffffffffffffffff1690602001909291908035906020019092919080359060200190929190803560ff1690602001909291908035906020019092919080359060200190929190505050611453565b005b610832600480360360408110156107e657600080fd5b81019080803573ffffffffffffffffffffffffffffffffffffffff169060200190929190803573ffffffffffffffffffffffffffffffffffffffff169060200190929190505050611976565b6040518082815260200191505060405180910390f35b6108506119fd565b6040518082815260200191505060405180910390f35b6108a86004803603602081101561087c57600080fd5b81019080803573ffffffffffffffffffffffffffffffffffffffff169060200190929190505050611a21565b005b6040518060400160405280600581526020017f6e576f726b00000000000000000000000000000000000000000000000000000081525081565b600081600760003373ffffffffffffffffffffffffffffffffffffffff1673ffffffffffffffffffffffffffffffffffffffff16815260200190815260200160002060008573ffffffffffffffffffffffffffffffffffffffff1673ffffffffffffffffffffffffffffffffffffffff168152602001908152602001600020819055508273ffffffffffffffffffffffffffffffffffffffff163373ffffffffffffffffffffffffffffffffffffffff167f8c5be1e5ebec7d5bd14f71427d1e84f3dd0314c0f7b2291e5b200ac8c7c3b925846040518082815260200191505060405180910390a36001905092915050565b6009602052816000526040600020602052806000526040600020600091509150508060000160009054906101000a900463ffffffff16908060010154905082565b60005481565b6000803390506000600760008773ffffffffffffffffffffffffffffffffffffffff1673ffffffffffffffffffffffffffffffffffffffff16815260200190815260200160002060008373ffffffffffffffffffffffffffffffffffffffff1673ffffffffffffffffffffffffffffffffffffffff1681526020019081526020016000205490508573ffffffffffffffffffffffffffffffffffffffff168273ffffffffffffffffffffffffffffffffffffffff1614158015610aff57507fffffffffffffffffffffffffffffffffffffffffffffffffffffffffffffffff8114155b15610bfa576000610b108286611b98565b905080600760008973ffffffffffffffffffffffffffffffffffffffff1673ffffffffffffffffffffffffffffffffffffffff16815260200190815260200160002060008573ffffffffffffffffffffffffffffffffffffffff1673ffffffffffffffffffffffffffffffffffffffff168152602001908152602001600020819055508273ffffffffffffffffffffffffffffffffffffffff168773ffffffffffffffffffffffffffffffffffffffff167f8c5be1e5ebec7d5bd14f71427d1e84f3dd0314c0f7b2291e5b200ac8c7c3b925836040518082815260200191505060405180910390a3505b610c05868686611be2565b6001925050509392505050565b7f6e71edae12b1b97f4d1f60370fef10105fa2faae0126114a169c64845d6126c981565b60045481565b601281565b600360009054906101000a900473ffffffffffffffffffffffffffffffffffffffff1673ffffffffffffffffffffffffffffffffffffffff163373ffffffffffffffffffffffffffffffffffffffff1614610ce7576040517f08c379a00000000000000000000000000000000000000000000000000000000081526004018080602001828103825260258152602001806129f96025913960400191505060405180910390fd5b600454421015610d42576040517f08c379a00000000000000000000000000000000000000000000000000000000081526004018080602001828103825260228152602001806129d76022913960400191505060405180910390fd5b600073ffffffffffffffffffffffffffffffffffffffff168273ffffffffffffffffffffffffffffffffffffffff161415610dc8576040517f08c379a000000000000000000000000000000000000000000000000000000000815260040180806020018281038252602e815260200180612970602e913960400191505060405180910390fd5b610dd442600554611f39565b600481905550610df4610ded600054600260ff16611fc1565b6064612047565b811115610e69576040517f08c379a000000000000000000000000000000000000000000000000000000000815260040180806020018281038252601c8152602001807f4e574b3a3a6d696e743a206578636565646564206d696e74206361700000000081525060200191505060405180910390fd5b610e7560005482611f39565b600081905550610ec4600860008473ffffffffffffffffffffffffffffffffffffffff1673ffffffffffffffffffffffffffffffffffffffff1681526020019081526020016000205482611f39565b600860008473ffffffffffffffffffffffffffffffffffffffff1673ffffffffffffffffffffffffffffffffffffffff168152602001908152602001600020819055508173ffffffffffffffffffffffffffffffffffffffff16600073ffffffffffffffffffffffffffffffffffffffff167fddf252ad1be2c89b69c2b068fc378daa952ba7f163c4a11628f55a4df523b3ef836040518082815260200191505060405180910390a3610fd86000600660008573ffffffffffffffffffffffffffffffffffffffff1673ffffffffffffffffffffffffffffffffffffffff16815260200190815260200160002060009054906101000a900473ffffffffffffffffffffffffffffffffffffffff1683612091565b5050565b60066020528060005260406000206000915054906101000a900473ffffffffffffffffffffffffffffffffffffffff1681565b60055481565b61101f33826122d8565b50565b600a6020528060005260406000206000915090505481565b6000600860008373ffffffffffffffffffffffffffffffffffffffff1673ffffffffffffffffffffffffffffffffffffffff168152602001908152602001600020549050919050565b600281565b60004382106110e2576040517f08c379a000000000000000000000000000000000000000000000000000000000815260040180806020018281038252602681526020018061294a6026913960400191505060405180910390fd5b6000600a60008573ffffffffffffffffffffffffffffffffffffffff1673ffffffffffffffffffffffffffffffffffffffff16815260200190815260200160002054905060008114156111395760009150506113e5565b82600960008673ffffffffffffffffffffffffffffffffffffffff1673ffffffffffffffffffffffffffffffffffffffff168152602001908152602001600020600060018403815260200190815260200160002060000160009054906101000a900463ffffffff1663ffffffff161161120b57600960008573ffffffffffffffffffffffffffffffffffffffff1673ffffffffffffffffffffffffffffffffffffffff1681526020019081526020016000206000600183038152602001908152602001600020600101549150506113e5565b82600960008673ffffffffffffffffffffffffffffffffffffffff1673ffffffffffffffffffffffffffffffffffffffff168152602001908152602001600020600080815260200190815260200160002060000160009054906101000a900463ffffffff1663ffffffff1611156112865760009150506113e5565b6000806001830390505b8181111561138b5760006002838303816112a657fe5b04820390506112b36128b1565b600960008973ffffffffffffffffffffffffffffffffffffffff1673ffffffffffffffffffffffffffffffffffffffff16815260200190815260200160002060008381526020019081526020016000206040518060400160405290816000820160009054906101000a900463ffffffff1663ffffffff1663ffffffff168152602001600182015481525050905086816000015163ffffffff161415611363578060200151955050505050506113e5565b86816000015163ffffffff16101561137d57819350611384565b6001820392505b5050611290565b600960008773ffffffffffffffffffffffffffffffffffffffff1673ffffffffffffffffffffffffffffffffffffffff16815260200190815260200160002060008381526020019081526020016000206001015493505050505b92915050565b60026020528060005260406000206000915090505481565b6040518060400160405280600381526020017f4e574b000000000000000000000000000000000000000000000000000000000081525081565b6000611449338484611be2565b6001905092915050565b60007f4e9b663e50e624fd4bcca501ff51200e02bab1d7cc18a7976b05160abc623dfc6040518060400160405280600581526020017f6e576f726b000000000000000000000000000000000000000000000000000000815250805190602001206114bb612480565b30604051602001808581526020018481526020018381526020018273ffffffffffffffffffffffffffffffffffffffff16815260200194505050505060405160208183030381529060405280519060200120905060007f6e71edae12b1b97f4d1f60370fef10105fa2faae0126114a169c64845d6126c9898989600260008e73ffffffffffffffffffffffffffffffffffffffff1673ffffffffffffffffffffffffffffffffffffffff1681526020019081526020016000206000815480929190600101919050558a604051602001808781526020018673ffffffffffffffffffffffffffffffffffffffff1681526020018573ffffffffffffffffffffffffffffffffffffffff16815260200184815260200183815260200182815260200196505050505050506040516020818303038152906040528051906020012090506000828260405160200180807f190100000000000000000000000000000000000000000000000000000000000081525060020183815260200182815260200192505050604051602081830303815290604052805190602001209050600060018288888860405160008152602001604052604051808581526020018460ff1681526020018381526020018281526020019450505050506020604051602081039080840390855afa1580156116b2573d6000803e3d6000fd5b505050602060405103519050600073ffffffffffffffffffffffffffffffffffffffff168b73ffffffffffffffffffffffffffffffffffffffff161415611761576040517f08c379a000000000000000000000000000000000000000000000000000000000815260040180806020018281038252601e8152602001807f4e574b3a3a7065726d69743a20696e76616c6964207369676e6174757265000081525060200191505060405180910390fd5b8073ffffffffffffffffffffffffffffffffffffffff168b73ffffffffffffffffffffffffffffffffffffffff1614611802576040517f08c379a00000000000000000000000000000000000000000000000000000000081526004018080602001828103825260198152602001807f4e574b3a3a7065726d69743a20756e617574686f72697a65640000000000000081525060200191505060405180910390fd5b60008814806118115750874211155b611883576040517f08c379a000000000000000000000000000000000000000000000000000000000815260040180806020018281038252601b8152602001807f4e574b3a3a7065726d69743a2065787069726564207065726d6974000000000081525060200191505060405180910390fd5b88600760008d73ffffffffffffffffffffffffffffffffffffffff1673ffffffffffffffffffffffffffffffffffffffff16815260200190815260200160002060008c73ffffffffffffffffffffffffffffffffffffffff1673ffffffffffffffffffffffffffffffffffffffff168152602001908152602001600020819055508973ffffffffffffffffffffffffffffffffffffffff168b73ffffffffffffffffffffffffffffffffffffffff167f8c5be1e5ebec7d5bd14f71427d1e84f3dd0314c0f7b2291e5b200ac8c7c3b9258b6040518082815260200191505060405180910390a35050505050505050505050565b6000600760008473ffffffffffffffffffffffffffffffffffffffff1673ffffffffffffffffffffffffffffffffffffffff16815260200190815260200160002060008373ffffffffffffffffffffffffffffffffffffffff1673ffffffffffffffffffffffffffffffffffffffff16815260200190815260200160002054905092915050565b7fe48329057bfd03d55e49b547132e39cffd9c1820ad7b9d4c5307691425d15adf81565b600360009054906101000a900473ffffffffffffffffffffffffffffffffffffffff1673ffffffffffffffffffffffffffffffffffffffff163373ffffffffffffffffffffffffffffffffffffffff1614611ac7576040517f08c379a000000000000000000000000000000000000000000000000000000000815260040180806020018281038252603d8152602001806128d2603d913960400191505060405180910390fd5b7f3b0007eb941cf645526cbb3a4fdaecda9d28ce4843167d9263b536a1f1edc0f6600360009054906101000a900473ffffffffffffffffffffffffffffffffffffffff1682604051808373ffffffffffffffffffffffffffffffffffffffff1681526020018273ffffffffffffffffffffffffffffffffffffffff1681526020019250505060405180910390a180600360006101000a81548173ffffffffffffffffffffffffffffffffffffffff021916908373ffffffffffffffffffffffffffffffffffffffff16021790555050565b6000611bda83836040518060400160405280601e81526020017f536166654d6174683a207375627472616374696f6e206f766572666c6f77000081525061248d565b905092915050565b600073ffffffffffffffffffffffffffffffffffffffff168373ffffffffffffffffffffffffffffffffffffffff161415611c68576040517f08c379a000000000000000000000000000000000000000000000000000000000815260040180806020018281038252603b81526020018061290f603b913960400191505060405180910390fd5b600073ffffffffffffffffffffffffffffffffffffffff168273ffffffffffffffffffffffffffffffffffffffff161415611cee576040517f08c379a000000000000000000000000000000000000000000000000000000000815260040180806020018281038252603981526020018061299e6039913960400191505060405180910390fd5b611d37600860008573ffffffffffffffffffffffffffffffffffffffff1673ffffffffffffffffffffffffffffffffffffffff1681526020019081526020016000205482611b98565b600860008573ffffffffffffffffffffffffffffffffffffffff1673ffffffffffffffffffffffffffffffffffffffff16815260200190815260200160002081905550611dc3600860008473ffffffffffffffffffffffffffffffffffffffff1673ffffffffffffffffffffffffffffffffffffffff1681526020019081526020016000205482611f39565b600860008473ffffffffffffffffffffffffffffffffffffffff1673ffffffffffffffffffffffffffffffffffffffff168152602001908152602001600020819055508173ffffffffffffffffffffffffffffffffffffffff168373ffffffffffffffffffffffffffffffffffffffff167fddf252ad1be2c89b69c2b068fc378daa952ba7f163c4a11628f55a4df523b3ef836040518082815260200191505060405180910390a3611f34600660008573ffffffffffffffffffffffffffffffffffffffff1673ffffffffffffffffffffffffffffffffffffffff16815260200190815260200160002060009054906101000a900473ffffffffffffffffffffffffffffffffffffffff16600660008573ffffffffffffffffffffffffffffffffffffffff1673ffffffffffffffffffffffffffffffffffffffff16815260200190815260200160002060009054906101000a900473ffffffffffffffffffffffffffffffffffffffff1683612091565b505050565b600080828401905083811015611fb7576040517f08c379a000000000000000000000000000000000000000000000000000000000815260040180806020018281038252601b8152602001807f536166654d6174683a206164646974696f6e206f766572666c6f77000000000081525060200191505060405180910390fd5b8091505092915050565b600080831415611fd45760009050612041565b6000828402905082848281611fe557fe5b041461203c576040517f08c379a0000000000000000000000000000000000000000000000000000000008152600401808060200182810382526021815260200180612a1e6021913960400191505060405180910390fd5b809150505b92915050565b600061208983836040518060400160405280601a81526020017f536166654d6174683a206469766973696f6e206279207a65726f00000000000081525061254d565b905092915050565b8173ffffffffffffffffffffffffffffffffffffffff168373ffffffffffffffffffffffffffffffffffffffff16141580156120cd5750600081115b156122d357600073ffffffffffffffffffffffffffffffffffffffff168373ffffffffffffffffffffffffffffffffffffffff16146121d2576000600a60008573ffffffffffffffffffffffffffffffffffffffff1673ffffffffffffffffffffffffffffffffffffffff168152602001908152602001600020549050600080821161215a5760006121b2565b600960008673ffffffffffffffffffffffffffffffffffffffff1673ffffffffffffffffffffffffffffffffffffffff1681526020019081526020016000206000600184038152602001908152602001600020600101545b905060006121c08285611b98565b90506121ce86848484612613565b5050505b600073ffffffffffffffffffffffffffffffffffffffff168273ffffffffffffffffffffffffffffffffffffffff16146122d2576000600a60008473ffffffffffffffffffffffffffffffffffffffff1673ffffffffffffffffffffffffffffffffffffffff168152602001908152602001600020549050600080821161225a5760006122b2565b600960008573ffffffffffffffffffffffffffffffffffffffff1673ffffffffffffffffffffffffffffffffffffffff1681526020019081526020016000206000600184038152602001908152602001600020600101545b905060006122c08285611f39565b90506122ce85848484612613565b5050505b5b505050565b6000600660008473ffffffffffffffffffffffffffffffffffffffff1673ffffffffffffffffffffffffffffffffffffffff16815260200190815260200160002060009054906101000a900473ffffffffffffffffffffffffffffffffffffffff1690506000600860008573ffffffffffffffffffffffffffffffffffffffff1673ffffffffffffffffffffffffffffffffffffffff16815260200190815260200160002054905082600660008673ffffffffffffffffffffffffffffffffffffffff1673ffffffffffffffffffffffffffffffffffffffff16815260200190815260200160002060006101000a81548173ffffffffffffffffffffffffffffffffffffffff021916908373ffffffffffffffffffffffffffffffffffffffff1602179055508273ffffffffffffffffffffffffffffffffffffffff168273ffffffffffffffffffffffffffffffffffffffff168573ffffffffffffffffffffffffffffffffffffffff167f3134e8a2e6d97e929a7e54011ea5485d7d196dd5f0ba4d4ef95803e8e3fc257f60405160405180910390a461247a828483612091565b50505050565b6000804690508091505090565b600083831115829061253a576040517f08c379a00000000000000000000000000000000000000000000000000000000081526004018080602001828103825283818151815260200191508051906020019080838360005b838110156124ff5780820151818401526020810190506124e4565b50505050905090810190601f16801561252c5780820380516001836020036101000a031916815260200191505b509250505060405180910390fd5b5060008385039050809150509392505050565b600080831182906125f9576040517f08c379a00000000000000000000000000000000000000000000000000000000081526004018080602001828103825283818151815260200191508051906020019080838360005b838110156125be5780820151818401526020810190506125a3565b50505050905090810190601f1680156125eb5780820380516001836020036101000a031916815260200191505b509250505060405180910390fd5b50600083858161260557fe5b049050809150509392505050565b600061261e4361284a565b90506000841180156126a157508063ffffffff16600960008773ffffffffffffffffffffffffffffffffffffffff1673ffffffffffffffffffffffffffffffffffffffff168152602001908152602001600020600060018703815260200190815260200160002060000160009054906101000a900463ffffffff1663ffffffff16145b156127065781600960008773ffffffffffffffffffffffffffffffffffffffff1673ffffffffffffffffffffffffffffffffffffffff1681526020019081526020016000206000600187038152602001908152602001600020600101819055506127ed565b60405180604001604052808263ffffffff16815260200183815250600960008773ffffffffffffffffffffffffffffffffffffffff1673ffffffffffffffffffffffffffffffffffffffff168152602001908152602001600020600086815260200190815260200160002060008201518160000160006101000a81548163ffffffff021916908363ffffffff1602179055506020820151816001015590505060018401600a60008773ffffffffffffffffffffffffffffffffffffffff1673ffffffffffffffffffffffffffffffffffffffff168152602001908152602001600020819055505b8473ffffffffffffffffffffffffffffffffffffffff167fdec2bacdd2f05b59de34da9b523dff8be42e5e38e818c82fdb0bae774387a7248484604051808381526020018281526020019250505060405180910390a25050505050565b600064010000000082106128a9576040517f08c379a0000000000000000000000000000000000000000000000000000000008152600401808060200182810382526026815260200180612a3f6026913960400191505060405180910390fd5b819050919050565b6040518060400160405280600063ffffffff16815260200160008152509056fe4e574b3a3a7365744d696e7465723a206f6e6c7920746865206d696e7465722063616e206368616e676520746865206d696e74657220616464726573734e574b3a3a5f7472616e73666572546f6b656e733a2063616e6e6f74207472616e736665722066726f6d20746865207a65726f20616464726573734e574b3a3a6765745072696f72566f7465733a206e6f74207965742064657465726d696e65644e574b3a3a6d696e743a2063616e6e6f74207472616e7366657220746f20746865207a65726f20616464726573734e574b3a3a5f7472616e73666572546f6b656e733a2063616e6e6f74207472616e7366657220746f20746865207a65726f20616464726573734e574b3a3a6d696e743a206d696e74696e67206e6f7420616c6c6f776564207965744e574b3a3a6d696e743a206f6e6c79207468652074726561737572792063616e206d696e74536166654d6174683a206d756c7469706c69636174696f6e206f766572666c6f7753616665436173743a2076616c756520646f65736e27742066697420696e2033322062697473a264697066735822122011e67627dd25bd15ae3b5cb0320c329c02acde9e911716c6d229261a4990f86a64736f6c634300070300334e574b3a3a636f6e7374727563746f723a206d696e74696e672063616e206f6e6c7920626567696e206166746572206465706c6f796d656e74",
  "immutableReferences": {},
  "source": "// SPDX-License-Identifier: MIT\npragma solidity ^0.7.3;\n\nimport '@openzeppelin/contracts/math/SafeMath.sol';\nimport '@openzeppelin/contracts/utils/SafeCast.sol';\n\n\n/// @title nWork application\n/// @author Simon Liu & Donald Liu\n\n/**\n * @title nWorkToken contract\n * @dev This is the implementation of the ERC20 nWork Token.\n * The implementation exposes a Permit() function to allow for a spender to send a signed message\n * and approve funds to a spender following EIP2612 to make integration with other contracts easier.\n * EIP2612 describes how to use EIP712 for the Permit() function.\n *\n */\ncontract nWorkToken {\n    using SafeMath for uint256;\n\n    // The EIP-712 typehash for the contract's domain\n    bytes32 private constant DOMAIN_TYPEHASH = keccak256(\"EIP712Domain(string name,uint256 chainId,address verifyContract)\");\n\n    /// The EIP-712 typehash for the delegation struct used by the contract\n    bytes32 public constant DELEGATION_TYPEHASH = keccak256(\"Delegation(address delegatee,uint256 nonce,uint256 expiry)\");\n\n    /// The EIP-712 typehash for the permit struct used by the contract\n    bytes32 public constant PERMIT_TYPEHASH = keccak256(\"Permit(address owner,address spender,uint256 value,uint256 nonce,uint256 deadline)\");\n\n\n    // -- Events --\n    event MinterChanged(address minter, address newMinter);\n\n    // An event thats emitted when an account changes its delegate\n    event DelegateChanged(address indexed delegator, address indexed fromDelegate, address indexed toDelegate);\n\n    // An event thats emitted when a delegate account's vote balance changes\n    event DelegateVotesChanged(address indexed delegate, uint previousBalance, uint newBalance);\n\n    // The standard EIP-20 transfer event\n    event Transfer(address indexed from, address indexed to, uint256 amount);\n\n    // The standard EIP-20 approval event\n    event Approval(address indexed owner, address indexed spender, uint256 amount);\n\n\n    // -- State --\n\n    // EIP-20 token name for this token\n    string public constant name = \"nWork\";\n\n    // EIP-20 token symbol for this token\n    string public constant symbol = \"NWK\";\n\n    // EIP-20 token decimals for this token\n    uint8 public constant decimals = 18;\n\n    uint256 public totalSupply = 1_000_000_000e18; // 1 billion NWK \n\n    bytes32 private DOMAIN_SEPARATOR;\n\n    mapping(address => uint256) public nonces;\n\n    address minter;\n\n    uint256 public mintingAllowedAfter;\n\n    uint256 public minimumTimeBetweenMints = 30 days;\n\n    // A record of each accounts delegate\n    mapping (address => address) public delegates;\n\n    // Cap on the percentage of totalSupply that can be minted at each mint\n    uint8 public constant mintCap = 2;\n\n    // Allowance amounts on behalf of others\n    mapping (address => mapping (address => uint256)) internal allowances;\n\n    // Official record of token balances for each account\n    mapping (address => uint256) internal balances;\n\n    // A checkpoint for marking number of votes from a given block\n    struct Checkpoint {\n        uint32 fromBlock;\n        uint256 votes;\n    }\n\n    // A record of votes checkpoints for each account, by index\n    mapping (address => mapping (uint256 => Checkpoint)) public checkpoints;\n\n    // The number of checkpoints for each account\n    mapping (address => uint256) public numCheckpoints;\n\n    /**\n     * @dev Construct a new nWork token\n     * @param _account Developer account to initially mint tokens\n     * @param _minter The account with minting ability\n     * @param _initialSupplyDev Amount to give to the dev account\n     * @param _initialSupplyMinter Amount to give to the Treasury\n     * @param _mintingAllowedAfter The timestamp after which minting may occur\n     */\n    constructor(address _account, address _minter, uint256 _initialSupplyDev, uint256 _initialSupplyMinter, uint256 _mintingAllowedAfter) {\n        require(_mintingAllowedAfter >= block.timestamp, \"NWK::constructor: minting can only begin after deployment\");\n\n        balances[_account] = _initialSupplyDev;\n        emit Transfer(address(0), _account, _initialSupplyDev);\n\n        balances[_minter] = _initialSupplyMinter;\n        emit Transfer(address(0), _minter, _initialSupplyMinter);\n\n        minter = _minter;\n        emit MinterChanged(address(0), minter);\n\n        mintingAllowedAfter = _mintingAllowedAfter;\n    }\n\n    /**\n     * @dev Change the minter address\n     * @param _minter The address of the new minter\n     */\n    function setMinter(address _minter) external {\n        require(msg.sender == minter, \"NWK::setMinter: only the minter can change the minter address\");\n        emit MinterChanged(minter, _minter);\n        minter = _minter;\n    }\n\n    /**\n     * @dev Mint new tokens\n     * @param _dst The address of the destination accoutn\n     * @param _amount The number of tokens to be minted\n     */\n    function mint(address _dst, uint256 _amount) external {\n        require(msg.sender == minter, \"NWK::mint: only the treasury can mint\");\n        require(block.timestamp >= mintingAllowedAfter, \"NWK::mint: minting not allowed yet\");\n        require(_dst != address(0), \"NWK::mint: cannot transfer to the zero address\");\n\n        // record the mint\n        mintingAllowedAfter = SafeMath.add(block.timestamp, minimumTimeBetweenMints);\n\n        // mint the amount\n        require(_amount <= SafeMath.div(SafeMath.mul(totalSupply, mintCap), 100), \"NWK::mint: exceeded mint cap\");\n        totalSupply = SafeMath.add(totalSupply, _amount);\n\n        // transfer the amount to the recipient\n        balances[_dst] = SafeMath.add(balances[_dst], _amount);\n        emit Transfer(address(0), _dst, _amount);\n\n        // move delegates\n        _moveDelegates(address(0), delegates[_dst], _amount);\n    }\n\n    /**\n     * @notice Get the number of tokens `spender` is approved to spend on behalf of `account`\n     * @param _account The address of the account holding the funds\n     * @param _spender The address of the account spending the funds\n     * @return The number of tokens approved\n     */\n    function allowance(address _account, address _spender) external view returns (uint256) {\n        return allowances[_account][_spender];\n    }\n\n    /**\n     * @notice Approve `spender` to transfer up to `amount` from `src`\n     * @dev This will overwrite the approval amount for `spender`\n     *  and is subject to issues noted [here](https://eips.ethereum.org/EIPS/eip-20#approve)\n     * @param _spender The address of the account which may transfer tokens\n     * @param _amount The number of tokens that are approved (2^256-1 means infinite)\n     * @return Whether or not the approval succeeded\n     */\n    function approve(address _spender, uint256 _amount) external returns (bool) {\n        allowances[msg.sender][_spender] = _amount;\n\n        emit Approval(msg.sender, _spender, _amount);\n        return true;\n    }\n\n    /**\n     * @dev Approve token allowance by validating a message signed by the holder.\n     * @param _owner Address of the token holder\n     * @param _spender Address of the approved spender\n     * @param _value Amount of tokens to approve the spender\n     * @param _deadline Expiration time of the signed permit\n     * @param _v Signature version\n     * @param _r Signature r value\n     * @param _s Signature s value\n     */\n    function permit(address _owner, address _spender, uint256 _value, uint256 _deadline, uint8 _v, bytes32 _r, bytes32 _s) external {\n        bytes32 domainSeparator = keccak256(abi.encode(DOMAIN_TYPEHASH, keccak256(bytes(name)), _getChainID(), address(this)));\n        bytes32 structHash = keccak256(abi.encode(PERMIT_TYPEHASH, _owner, _spender, _value, nonces[_owner]++, _deadline));\n        bytes32 digest = keccak256(abi.encodePacked(\"\\x19\\x01\", domainSeparator, structHash));\n        address recoveredAddress = ecrecover(digest, _v, _r, _s);\n        require(_owner != address(0), \"NWK::permit: invalid signature\");\n        require(_owner == recoveredAddress, \"NWK::permit: unauthorized\");\n        require(_deadline == 0 || block.timestamp <= _deadline, \"NWK::permit: expired permit\");\n\n        allowances[_owner][_spender] = _value;\n\n        emit Approval(_owner, _spender, _value);\n    }\n\n    \n    /**\n     * @notice Get the number of tokens held by the `account`\n     * @param _account The address of the account to get the balance of\n     * @return The number of tokens held\n     */\n    function balanceOf(address _account) external view returns (uint) {\n        return balances[_account];\n    }\n\n    /**\n     * @notice Transfer `amount` tokens from `msg.sender` to `dst`\n     * @param _dst The address of the destination account\n     * @param _amount The number of tokens to transfer\n     * @return Whether or not the transfer succeeded\n     */\n    function transfer(address _dst, uint256 _amount) external returns (bool) {\n        _transferTokens(msg.sender, _dst, _amount);\n        return true;\n    }\n\n    /**\n     * @notice Transfer `amount` tokens from `src` to `dst`\n     * @param _src The address of the source account\n     * @param _dst The address of the destination account\n     * @param _amount The number of tokens to transfer\n     * @return Whether or not the transfer succeeded\n     */\n    function transferFrom(address _src, address _dst, uint _amount) external returns (bool) {\n        address spender = msg.sender;\n        uint256 spenderAllowance = allowances[_src][spender];\n\n        if (spender != _src && spenderAllowance != uint256(-1)) {\n            uint256 newAllowance = SafeMath.sub(spenderAllowance, _amount);\n            allowances[_src][spender] = newAllowance;\n\n            emit Approval(_src, spender, newAllowance);\n        }\n\n        _transferTokens(_src, _dst, _amount);\n        return true;\n    }\n\n    /**\n     * @dev Delegate votes from `msg.sender` to `delegatee`\n     * @param _delegatee The address to delegate votes to\n     */\n    function delegate(address _delegatee) public {\n        return _delegate(msg.sender, _delegatee);\n    }\n\n    /**\n     * @notice Determine the prior number of votes for an account as of a block number. Counts the delegated votes as voting power.\n     * @dev Block number must be a finalized block or else this function will revert to prevent misinformation.\n     * @param _account The address of the account to check\n     * @param _blockNumber The block number to get the vote balance at\n     * @return The number of votes the account had as of the given block\n     */\n    function getPriorVotes(address _account, uint _blockNumber) public view returns (uint256) {\n        require(_blockNumber < block.number, \"NWK::getPriorVotes: not yet determined\");\n \n        uint256 nCheckpoints = numCheckpoints[_account];\n\n        if (nCheckpoints == 0) {\n            return 0;\n        }\n\n        // First check most recent balance\n        if (checkpoints[_account][nCheckpoints - 1].fromBlock <= _blockNumber) {\n            return checkpoints[_account][nCheckpoints - 1].votes;\n        }\n\n        // Next check implicit zero balance\n        if (checkpoints[_account][0].fromBlock > _blockNumber) {\n            return 0;\n        }\n\n        uint256 lower = 0;\n        uint256 upper = nCheckpoints - 1;\n        while (upper > lower) {\n            uint256 center = upper - (upper - lower) / 2; // ceil, avoiding overflow\n            Checkpoint memory cp = checkpoints[_account][center];\n            if (cp.fromBlock == _blockNumber) {\n                return cp.votes;\n            } else if (cp.fromBlock < _blockNumber) {\n                lower = center;\n            } else {\n                upper = center - 1;\n            }\n        }\n        return checkpoints[_account][lower].votes;\n    }\n   \n    function _delegate(address delegator, address delegatee) internal {\n        address currentDelegate = delegates[delegator];\n        uint256 delegatorBalance = balances[delegator];\n        delegates[delegator] = delegatee;\n\n        emit DelegateChanged(delegator, currentDelegate, delegatee);\n\n        _moveDelegates(currentDelegate, delegatee, delegatorBalance);\n    }\n\n    function _transferTokens(address src, address dst, uint256 amount) internal {\n        require(src != address(0), \"NWK::_transferTokens: cannot transfer from the zero address\");\n        require(dst != address(0), \"NWK::_transferTokens: cannot transfer to the zero address\");\n\n        balances[src] = SafeMath.sub(balances[src], amount);\n        balances[dst] = SafeMath.add(balances[dst], amount);\n        emit Transfer(src, dst, amount);\n\n        _moveDelegates(delegates[src], delegates[dst], amount);\n    }\n\n    function _moveDelegates(address srcRep, address dstRep, uint256 amount) internal {\n        if (srcRep != dstRep && amount > 0) {\n            if (srcRep != address(0)) {\n                uint256 srcRepNum = numCheckpoints[srcRep];\n                uint256 srcRepOld = srcRepNum > 0 ? checkpoints[srcRep][srcRepNum - 1].votes : 0;\n                uint256 srcRepNew = SafeMath.sub(srcRepOld, amount);\n                _writeCheckpoint(srcRep, srcRepNum, srcRepOld, srcRepNew);\n            }\n\n            if (dstRep != address(0)) {\n                uint256 dstRepNum = numCheckpoints[dstRep];\n                uint256 dstRepOld = dstRepNum > 0 ? checkpoints[dstRep][dstRepNum - 1].votes : 0;\n                uint256 dstRepNew = SafeMath.add(dstRepOld, amount);\n                _writeCheckpoint(dstRep, dstRepNum, dstRepOld, dstRepNew);\n            }\n        }\n    }\n\n    function _writeCheckpoint(address delegatee, uint256 nCheckpoints, uint256 oldVotes, uint256 newVotes) internal {\n        uint32 blockNumber = SafeCast.toUint32(block.number);\n\n        if (nCheckpoints > 0 && checkpoints[delegatee][nCheckpoints - 1].fromBlock == blockNumber) {\n            checkpoints[delegatee][nCheckpoints - 1].votes = newVotes;\n        } else {\n            checkpoints[delegatee][nCheckpoints] = Checkpoint(blockNumber, newVotes);\n            numCheckpoints[delegatee] = nCheckpoints + 1;\n        }\n\n        emit DelegateVotesChanged(delegatee, oldVotes, newVotes);\n    }\n\n    /**\n     * @dev Get the running network chain ID.\n     * @return The chain ID\n     */\n    function _getChainID() private pure returns (uint256) {\n        uint256 id;\n        assembly {\n            id := chainid()\n        }\n        return id;\n    }\n\n} \n",
  "sourcePath": "/home/simon/nWork/nWork/contracts/nWorkToken.sol",
  "compiler": {
    "name": "solc",
    "version": "0.7.3+commit.9bfce1f6.Emscripten.clang"
  },
  "schemaVersion": "3.3.2",
  "updatedAt": "2021-01-10T22:29:01.361Z",
  "devdoc": {
    "details": "This is the implementation of the ERC20 nWork Token. The implementation exposes a Permit() function to allow for a spender to send a signed message and approve funds to a spender following EIP2612 to make integration with other contracts easier. EIP2612 describes how to use EIP712 for the Permit() function.",
    "kind": "dev",
    "methods": {
      "allowance(address,address)": {
        "params": {
          "_account": "The address of the account holding the funds",
          "_spender": "The address of the account spending the funds"
        },
        "returns": {
          "_0": "The number of tokens approved"
        }
      },
      "approve(address,uint256)": {
        "details": "This will overwrite the approval amount for `spender`  and is subject to issues noted [here](https://eips.ethereum.org/EIPS/eip-20#approve)",
        "params": {
          "_amount": "The number of tokens that are approved (2^256-1 means infinite)",
          "_spender": "The address of the account which may transfer tokens"
        },
        "returns": {
          "_0": "Whether or not the approval succeeded"
        }
      },
      "balanceOf(address)": {
        "params": {
          "_account": "The address of the account to get the balance of"
        },
        "returns": {
          "_0": "The number of tokens held"
        }
      },
      "constructor": {
        "details": "Construct a new nWork token",
        "params": {
          "_account": "Developer account to initially mint tokens",
          "_initialSupplyDev": "Amount to give to the dev account",
          "_initialSupplyMinter": "Amount to give to the Treasury",
          "_minter": "The account with minting ability",
          "_mintingAllowedAfter": "The timestamp after which minting may occur"
        }
      },
      "delegate(address)": {
        "details": "Delegate votes from `msg.sender` to `delegatee`",
        "params": {
          "_delegatee": "The address to delegate votes to"
        }
      },
      "getPriorVotes(address,uint256)": {
        "details": "Block number must be a finalized block or else this function will revert to prevent misinformation.",
        "params": {
          "_account": "The address of the account to check",
          "_blockNumber": "The block number to get the vote balance at"
        },
        "returns": {
          "_0": "The number of votes the account had as of the given block"
        }
      },
      "mint(address,uint256)": {
        "details": "Mint new tokens",
        "params": {
          "_amount": "The number of tokens to be minted",
          "_dst": "The address of the destination accoutn"
        }
      },
      "permit(address,address,uint256,uint256,uint8,bytes32,bytes32)": {
        "details": "Approve token allowance by validating a message signed by the holder.",
        "params": {
          "_deadline": "Expiration time of the signed permit",
          "_owner": "Address of the token holder",
          "_r": "Signature r value",
          "_s": "Signature s value",
          "_spender": "Address of the approved spender",
          "_v": "Signature version",
          "_value": "Amount of tokens to approve the spender"
        }
      },
      "setMinter(address)": {
        "details": "Change the minter address",
        "params": {
          "_minter": "The address of the new minter"
        }
      },
      "transfer(address,uint256)": {
        "params": {
          "_amount": "The number of tokens to transfer",
          "_dst": "The address of the destination account"
        },
        "returns": {
          "_0": "Whether or not the transfer succeeded"
        }
      },
      "transferFrom(address,address,uint256)": {
        "params": {
          "_amount": "The number of tokens to transfer",
          "_dst": "The address of the destination account",
          "_src": "The address of the source account"
        },
        "returns": {
          "_0": "Whether or not the transfer succeeded"
        }
      }
    },
    "title": "nWorkToken contract",
    "version": 1
  },
  "userdoc": {
    "kind": "user",
    "methods": {
      "DELEGATION_TYPEHASH()": {
        "notice": "The EIP-712 typehash for the delegation struct used by the contract"
      },
      "PERMIT_TYPEHASH()": {
        "notice": "The EIP-712 typehash for the permit struct used by the contract"
      },
      "allowance(address,address)": {
        "notice": "Get the number of tokens `spender` is approved to spend on behalf of `account`"
      },
      "approve(address,uint256)": {
        "notice": "Approve `spender` to transfer up to `amount` from `src`"
      },
      "balanceOf(address)": {
        "notice": "Get the number of tokens held by the `account`"
      },
      "getPriorVotes(address,uint256)": {
        "notice": "Determine the prior number of votes for an account as of a block number. Counts the delegated votes as voting power."
      },
      "transfer(address,uint256)": {
        "notice": "Transfer `amount` tokens from `msg.sender` to `dst`"
      },
      "transferFrom(address,address,uint256)": {
        "notice": "Transfer `amount` tokens from `src` to `dst`"
      }
    },
    "version": 1
  }
}