{
  "contractName": "nWorkToken",
  "abi": [
    {
      "inputs": [
        {
          "internalType": "address",
          "name": "_account",
          "type": "address"
        },
        {
          "internalType": "address",
          "name": "_minter",
          "type": "address"
        },
        {
          "internalType": "uint256",
          "name": "_initialSupplyDev",
          "type": "uint256"
        },
        {
          "internalType": "uint256",
          "name": "_initialSupplyMinter",
          "type": "uint256"
        },
        {
          "internalType": "uint256",
          "name": "_mintingAllowedAfter",
          "type": "uint256"
        }
      ],
      "stateMutability": "nonpayable",
      "type": "constructor"
    },
    {
      "anonymous": false,
      "inputs": [
        {
          "indexed": true,
          "internalType": "address",
          "name": "owner",
          "type": "address"
        },
        {
          "indexed": true,
          "internalType": "address",
          "name": "spender",
          "type": "address"
        },
        {
          "indexed": false,
          "internalType": "uint256",
          "name": "value",
          "type": "uint256"
        }
      ],
      "name": "Approval",
      "type": "event"
    },
    {
      "anonymous": false,
      "inputs": [
        {
          "indexed": false,
          "internalType": "address",
          "name": "minter",
          "type": "address"
        },
        {
          "indexed": false,
          "internalType": "address",
          "name": "newMinter",
          "type": "address"
        }
      ],
      "name": "MinterChanged",
      "type": "event"
    },
    {
      "anonymous": false,
      "inputs": [
        {
          "indexed": true,
          "internalType": "address",
          "name": "from",
          "type": "address"
        },
        {
          "indexed": true,
          "internalType": "address",
          "name": "to",
          "type": "address"
        },
        {
          "indexed": false,
          "internalType": "uint256",
          "name": "value",
          "type": "uint256"
        }
      ],
      "name": "Transfer",
      "type": "event"
    },
    {
      "inputs": [
        {
          "internalType": "address",
          "name": "owner",
          "type": "address"
        },
        {
          "internalType": "address",
          "name": "spender",
          "type": "address"
        }
      ],
      "name": "allowance",
      "outputs": [
        {
          "internalType": "uint256",
          "name": "",
          "type": "uint256"
        }
      ],
      "stateMutability": "view",
      "type": "function"
    },
    {
      "inputs": [
        {
          "internalType": "address",
          "name": "spender",
          "type": "address"
        },
        {
          "internalType": "uint256",
          "name": "amount",
          "type": "uint256"
        }
      ],
      "name": "approve",
      "outputs": [
        {
          "internalType": "bool",
          "name": "",
          "type": "bool"
        }
      ],
      "stateMutability": "nonpayable",
      "type": "function"
    },
    {
      "inputs": [
        {
          "internalType": "address",
          "name": "account",
          "type": "address"
        }
      ],
      "name": "balanceOf",
      "outputs": [
        {
          "internalType": "uint256",
          "name": "",
          "type": "uint256"
        }
      ],
      "stateMutability": "view",
      "type": "function"
    },
    {
      "inputs": [],
      "name": "decimals",
      "outputs": [
        {
          "internalType": "uint8",
          "name": "",
          "type": "uint8"
        }
      ],
      "stateMutability": "view",
      "type": "function"
    },
    {
      "inputs": [
        {
          "internalType": "address",
          "name": "spender",
          "type": "address"
        },
        {
          "internalType": "uint256",
          "name": "subtractedValue",
          "type": "uint256"
        }
      ],
      "name": "decreaseAllowance",
      "outputs": [
        {
          "internalType": "bool",
          "name": "",
          "type": "bool"
        }
      ],
      "stateMutability": "nonpayable",
      "type": "function"
    },
    {
      "inputs": [
        {
          "internalType": "address",
          "name": "spender",
          "type": "address"
        },
        {
          "internalType": "uint256",
          "name": "addedValue",
          "type": "uint256"
        }
      ],
      "name": "increaseAllowance",
      "outputs": [
        {
          "internalType": "bool",
          "name": "",
          "type": "bool"
        }
      ],
      "stateMutability": "nonpayable",
      "type": "function"
    },
    {
      "inputs": [],
      "name": "minimumTimeBetweenMints",
      "outputs": [
        {
          "internalType": "uint256",
          "name": "",
          "type": "uint256"
        }
      ],
      "stateMutability": "view",
      "type": "function"
    },
    {
      "inputs": [],
      "name": "mintCap",
      "outputs": [
        {
          "internalType": "uint8",
          "name": "",
          "type": "uint8"
        }
      ],
      "stateMutability": "view",
      "type": "function"
    },
    {
      "inputs": [],
      "name": "mintingAllowedAfter",
      "outputs": [
        {
          "internalType": "uint256",
          "name": "",
          "type": "uint256"
        }
      ],
      "stateMutability": "view",
      "type": "function"
    },
    {
      "inputs": [],
      "name": "name",
      "outputs": [
        {
          "internalType": "string",
          "name": "",
          "type": "string"
        }
      ],
      "stateMutability": "view",
      "type": "function"
    },
    {
      "inputs": [
        {
          "internalType": "address",
          "name": "",
          "type": "address"
        }
      ],
      "name": "nonces",
      "outputs": [
        {
          "internalType": "uint256",
          "name": "",
          "type": "uint256"
        }
      ],
      "stateMutability": "view",
      "type": "function"
    },
    {
      "inputs": [],
      "name": "symbol",
      "outputs": [
        {
          "internalType": "string",
          "name": "",
          "type": "string"
        }
      ],
      "stateMutability": "view",
      "type": "function"
    },
    {
      "inputs": [],
      "name": "totalSupply",
      "outputs": [
        {
          "internalType": "uint256",
          "name": "",
          "type": "uint256"
        }
      ],
      "stateMutability": "view",
      "type": "function"
    },
    {
      "inputs": [
        {
          "internalType": "address",
          "name": "recipient",
          "type": "address"
        },
        {
          "internalType": "uint256",
          "name": "amount",
          "type": "uint256"
        }
      ],
      "name": "transfer",
      "outputs": [
        {
          "internalType": "bool",
          "name": "",
          "type": "bool"
        }
      ],
      "stateMutability": "nonpayable",
      "type": "function"
    },
    {
      "inputs": [
        {
          "internalType": "address",
          "name": "sender",
          "type": "address"
        },
        {
          "internalType": "address",
          "name": "recipient",
          "type": "address"
        },
        {
          "internalType": "uint256",
          "name": "amount",
          "type": "uint256"
        }
      ],
      "name": "transferFrom",
      "outputs": [
        {
          "internalType": "bool",
          "name": "",
          "type": "bool"
        }
      ],
      "stateMutability": "nonpayable",
      "type": "function"
    },
    {
      "inputs": [
        {
          "internalType": "address",
          "name": "_owner",
          "type": "address"
        },
        {
          "internalType": "address",
          "name": "_spender",
          "type": "address"
        },
        {
          "internalType": "uint256",
          "name": "_value",
          "type": "uint256"
        },
        {
          "internalType": "uint256",
          "name": "_deadline",
          "type": "uint256"
        },
        {
          "internalType": "uint8",
          "name": "_v",
          "type": "uint8"
        },
        {
          "internalType": "bytes32",
          "name": "_r",
          "type": "bytes32"
        },
        {
          "internalType": "bytes32",
          "name": "_s",
          "type": "bytes32"
        }
      ],
      "name": "permit",
      "outputs": [],
      "stateMutability": "nonpayable",
      "type": "function"
    },
    {
      "inputs": [
        {
          "internalType": "address",
          "name": "_minter",
          "type": "address"
        }
      ],
      "name": "setMinter",
      "outputs": [],
      "stateMutability": "nonpayable",
      "type": "function"
    },
    {
      "inputs": [
        {
          "internalType": "uint256",
          "name": "_amount",
          "type": "uint256"
        }
      ],
      "name": "mint",
      "outputs": [],
      "stateMutability": "nonpayable",
      "type": "function"
    }
  ],
  "bytecode": "0x608060405262278d00600a553480156200001857600080fd5b506040516200284a3803806200284a833981810160405260a08110156200003e57600080fd5b8101908080519060200190929190805190602001909291908051906020019092919080519060200190929190805190602001909291905050506040518060400160405280600b81526020017f6e576f726b20546f6b656e0000000000000000000000000000000000000000008152506040518060400160405280600381526020017f4e574b00000000000000000000000000000000000000000000000000000000008152508160039080519060200190620000fb929190620006d5565b50806004908051906020019062000114929190620006d5565b506012600560006101000a81548160ff021916908360ff1602179055505050428110156200018e576040517f08c379a0000000000000000000000000000000000000000000000000000000008152600401808060200182810382526039815260200180620028116039913960400191505060405180910390fd5b620001a085846200045c60201b60201c565b8473ffffffffffffffffffffffffffffffffffffffff16600073ffffffffffffffffffffffffffffffffffffffff167fddf252ad1be2c89b69c2b068fc378daa952ba7f163c4a11628f55a4df523b3ef856040518082815260200191505060405180910390a36200021884836200045c60201b60201c565b8373ffffffffffffffffffffffffffffffffffffffff16600073ffffffffffffffffffffffffffffffffffffffff167fddf252ad1be2c89b69c2b068fc378daa952ba7f163c4a11628f55a4df523b3ef846040518082815260200191505060405180910390a383600860006101000a81548173ffffffffffffffffffffffffffffffffffffffff021916908373ffffffffffffffffffffffffffffffffffffffff1602179055507f3b0007eb941cf645526cbb3a4fdaecda9d28ce4843167d9263b536a1f1edc0f66000600860009054906101000a900473ffffffffffffffffffffffffffffffffffffffff16604051808373ffffffffffffffffffffffffffffffffffffffff1681526020018273ffffffffffffffffffffffffffffffffffffffff1681526020019250505060405180910390a1806009819055507f2f7c91c4a0fcc58b5eaafef3e0c596925325a06fb180c82c2d18c2bc130349f57fc8ce3a7c6e35f154a784ba6613675b24b1a611e1aa1babc7e9d421d0cc476af07f044852b2a670ade5407e78fb2863c51de9fcb96542a07186fe3aeda6bb8a116d620003c76200063a60201b60201c565b307f980cb6eac3e40de8c56a14e3590297fed65690e513fd5c1ef2ced9408b30303f60001b604051602001808781526020018681526020018581526020018481526020018373ffffffffffffffffffffffffffffffffffffffff16815260200182815260200196505050505050506040516020818303038152906040528051906020012060068190555050505050506200077b565b600073ffffffffffffffffffffffffffffffffffffffff168273ffffffffffffffffffffffffffffffffffffffff16141562000500576040517f08c379a000000000000000000000000000000000000000000000000000000000815260040180806020018281038252601f8152602001807f45524332303a206d696e7420746f20746865207a65726f20616464726573730081525060200191505060405180910390fd5b62000514600083836200064760201b60201c565b62000530816002546200064c60201b620012681790919060201c565b6002819055506200058e816000808573ffffffffffffffffffffffffffffffffffffffff1673ffffffffffffffffffffffffffffffffffffffff168152602001908152602001600020546200064c60201b620012681790919060201c565b6000808473ffffffffffffffffffffffffffffffffffffffff1673ffffffffffffffffffffffffffffffffffffffff168152602001908152602001600020819055508173ffffffffffffffffffffffffffffffffffffffff16600073ffffffffffffffffffffffffffffffffffffffff167fddf252ad1be2c89b69c2b068fc378daa952ba7f163c4a11628f55a4df523b3ef836040518082815260200191505060405180910390a35050565b6000804690508091505090565b505050565b600080828401905083811015620006cb576040517f08c379a000000000000000000000000000000000000000000000000000000000815260040180806020018281038252601b8152602001807f536166654d6174683a206164646974696f6e206f766572666c6f77000000000081525060200191505060405180910390fd5b8091505092915050565b828054600181600116156101000203166002900490600052602060002090601f016020900481019282601f106200071857805160ff191683800117855562000749565b8280016001018555821562000749579182015b82811115620007485782518255916020019190600101906200072b565b5b5090506200075891906200075c565b5090565b5b80821115620007775760008160009055506001016200075d565b5090565b612086806200078b6000396000f3fe608060405234801561001057600080fd5b50600436106101165760003560e01c806376c71ca1116100a2578063a457c2d711610071578063a457c2d7146104e7578063a9059cbb1461054b578063d505accf146105af578063dd62ed3e14610648578063fca3b5aa146106c057610116565b806376c71ca1146103bd5780637ecebe00146103de57806395d89b4114610436578063a0712d68146104b957610116565b806330b36cef116100e957806330b36cef146102a4578063313ce567146102c257806339509351146102e35780635c11d62f1461034757806370a082311461036557610116565b806306fdde031461011b578063095ea7b31461019e57806318160ddd1461020257806323b872dd14610220575b600080fd5b610123610704565b6040518080602001828103825283818151815260200191508051906020019080838360005b83811015610163578082015181840152602081019050610148565b50505050905090810190601f1680156101905780820380516001836020036101000a031916815260200191505b509250505060405180910390f35b6101ea600480360360408110156101b457600080fd5b81019080803573ffffffffffffffffffffffffffffffffffffffff169060200190929190803590602001909291905050506107a6565b60405180821515815260200191505060405180910390f35b61020a6107c4565b6040518082815260200191505060405180910390f35b61028c6004803603606081101561023657600080fd5b81019080803573ffffffffffffffffffffffffffffffffffffffff169060200190929190803573ffffffffffffffffffffffffffffffffffffffff169060200190929190803590602001909291905050506107ce565b60405180821515815260200191505060405180910390f35b6102ac6108a7565b6040518082815260200191505060405180910390f35b6102ca6108ad565b604051808260ff16815260200191505060405180910390f35b61032f600480360360408110156102f957600080fd5b81019080803573ffffffffffffffffffffffffffffffffffffffff169060200190929190803590602001909291905050506108c4565b60405180821515815260200191505060405180910390f35b61034f610977565b6040518082815260200191505060405180910390f35b6103a76004803603602081101561037b57600080fd5b81019080803573ffffffffffffffffffffffffffffffffffffffff16906020019092919050505061097d565b6040518082815260200191505060405180910390f35b6103c56109c5565b604051808260ff16815260200191505060405180910390f35b610420600480360360208110156103f457600080fd5b81019080803573ffffffffffffffffffffffffffffffffffffffff1690602001909291905050506109ca565b6040518082815260200191505060405180910390f35b61043e6109e2565b6040518080602001828103825283818151815260200191508051906020019080838360005b8381101561047e578082015181840152602081019050610463565b50505050905090810190601f1680156104ab5780820380516001836020036101000a031916815260200191505b509250505060405180910390f35b6104e5600480360360208110156104cf57600080fd5b8101908080359060200190929190505050610a84565b005b610533600480360360408110156104fd57600080fd5b81019080803573ffffffffffffffffffffffffffffffffffffffff16906020019092919080359060200190929190505050610c38565b60405180821515815260200191505060405180910390f35b6105976004803603604081101561056157600080fd5b81019080803573ffffffffffffffffffffffffffffffffffffffff16906020019092919080359060200190929190505050610d05565b60405180821515815260200191505060405180910390f35b610646600480360360e08110156105c557600080fd5b81019080803573ffffffffffffffffffffffffffffffffffffffff169060200190929190803573ffffffffffffffffffffffffffffffffffffffff1690602001909291908035906020019092919080359060200190929190803560ff1690602001909291908035906020019092919080359060200190929190505050610d23565b005b6106aa6004803603604081101561065e57600080fd5b81019080803573ffffffffffffffffffffffffffffffffffffffff169060200190929190803573ffffffffffffffffffffffffffffffffffffffff16906020019092919050505061106a565b6040518082815260200191505060405180910390f35b610702600480360360208110156106d657600080fd5b81019080803573ffffffffffffffffffffffffffffffffffffffff1690602001909291905050506110f1565b005b606060038054600181600116156101000203166002900480601f01602080910402602001604051908101604052809291908181526020018280546001816001161561010002031660029004801561079c5780601f106107715761010080835404028352916020019161079c565b820191906000526020600020905b81548152906001019060200180831161077f57829003601f168201915b5050505050905090565b60006107ba6107b36112f0565b84846112f8565b6001905092915050565b6000600254905090565b60006107db8484846114ef565b61089c846107e76112f0565b61089785604051806060016040528060288152602001611fbb60289139600160008b73ffffffffffffffffffffffffffffffffffffffff1673ffffffffffffffffffffffffffffffffffffffff168152602001908152602001600020600061084d6112f0565b73ffffffffffffffffffffffffffffffffffffffff1673ffffffffffffffffffffffffffffffffffffffff168152602001908152602001600020546117b09092919063ffffffff16565b6112f8565b600190509392505050565b60095481565b6000600560009054906101000a900460ff16905090565b600061096d6108d16112f0565b8461096885600160006108e26112f0565b73ffffffffffffffffffffffffffffffffffffffff1673ffffffffffffffffffffffffffffffffffffffff16815260200190815260200160002060008973ffffffffffffffffffffffffffffffffffffffff1673ffffffffffffffffffffffffffffffffffffffff1681526020019081526020016000205461126890919063ffffffff16565b6112f8565b6001905092915050565b600a5481565b60008060008373ffffffffffffffffffffffffffffffffffffffff1673ffffffffffffffffffffffffffffffffffffffff168152602001908152602001600020549050919050565b600281565b60076020528060005260406000206000915090505481565b606060048054600181600116156101000203166002900480601f016020809104026020016040519081016040528092919081815260200182805460018160011615610100020316600290048015610a7a5780601f10610a4f57610100808354040283529160200191610a7a565b820191906000526020600020905b815481529060010190602001808311610a5d57829003601f168201915b5050505050905090565b600860009054906101000a900473ffffffffffffffffffffffffffffffffffffffff1673ffffffffffffffffffffffffffffffffffffffff163373ffffffffffffffffffffffffffffffffffffffff1614610b2a576040517f08c379a0000000000000000000000000000000000000000000000000000000008152600401808060200182810382526025815260200180611f536025913960400191505060405180910390fd5b600954421015610b85576040517f08c379a0000000000000000000000000000000000000000000000000000000008152600401808060200182810382526022815260200180611f316022913960400191505060405180910390fd5b610b9142600a54611268565b600981905550610bb6610baf610ba56107c4565b600260ff16611870565b60646118f6565b811115610c2b576040517f08c379a000000000000000000000000000000000000000000000000000000000815260040180806020018281038252601c8152602001807f4e574b3a3a6d696e743a206578636565646564206d696e74206361700000000081525060200191505060405180910390fd5b610c353382611940565b50565b6000610cfb610c456112f0565b84610cf68560405180606001604052806025815260200161202c6025913960016000610c6f6112f0565b73ffffffffffffffffffffffffffffffffffffffff1673ffffffffffffffffffffffffffffffffffffffff16815260200190815260200160002060008a73ffffffffffffffffffffffffffffffffffffffff1673ffffffffffffffffffffffffffffffffffffffff168152602001908152602001600020546117b09092919063ffffffff16565b6112f8565b6001905092915050565b6000610d19610d126112f0565b84846114ef565b6001905092915050565b60006006547f6e71edae12b1b97f4d1f60370fef10105fa2faae0126114a169c64845d6126c9898989600760008e73ffffffffffffffffffffffffffffffffffffffff1673ffffffffffffffffffffffffffffffffffffffff168152602001908152602001600020548a604051602001808781526020018673ffffffffffffffffffffffffffffffffffffffff1681526020018573ffffffffffffffffffffffffffffffffffffffff16815260200184815260200183815260200182815260200196505050505050506040516020818303038152906040528051906020012060405160200180807f190100000000000000000000000000000000000000000000000000000000000081525060020183815260200182815260200192505050604051602081830303815290604052805190602001209050610eac6001600760008b73ffffffffffffffffffffffffffffffffffffffff1673ffffffffffffffffffffffffffffffffffffffff1681526020019081526020016000205461126890919063ffffffff16565b600760008a73ffffffffffffffffffffffffffffffffffffffff1673ffffffffffffffffffffffffffffffffffffffff168152602001908152602001600020819055506000610f3082858588604051602001808481526020018381526020018260ff1660f81b81526001019350505050604051602081830303815290604052611b07565b90508073ffffffffffffffffffffffffffffffffffffffff168973ffffffffffffffffffffffffffffffffffffffff1614610fd3576040517f08c379a00000000000000000000000000000000000000000000000000000000081526004018080602001828103825260138152602001807f4e574b3a20696e76616c6964207065726d69740000000000000000000000000081525060200191505060405180910390fd5b6000861480610fe25750854211155b611054576040517f08c379a00000000000000000000000000000000000000000000000000000000081526004018080602001828103825260138152602001807f4e574b3a2065787069726564207065726d69740000000000000000000000000081525060200191505060405180910390fd5b61105f8989896112f8565b505050505050505050565b6000600160008473ffffffffffffffffffffffffffffffffffffffff1673ffffffffffffffffffffffffffffffffffffffff16815260200190815260200160002060008373ffffffffffffffffffffffffffffffffffffffff1673ffffffffffffffffffffffffffffffffffffffff16815260200190815260200160002054905092915050565b600860009054906101000a900473ffffffffffffffffffffffffffffffffffffffff1673ffffffffffffffffffffffffffffffffffffffff163373ffffffffffffffffffffffffffffffffffffffff1614611197576040517f08c379a000000000000000000000000000000000000000000000000000000000815260040180806020018281038252603d815260200180611eac603d913960400191505060405180910390fd5b7f3b0007eb941cf645526cbb3a4fdaecda9d28ce4843167d9263b536a1f1edc0f6600860009054906101000a900473ffffffffffffffffffffffffffffffffffffffff1682604051808373ffffffffffffffffffffffffffffffffffffffff1681526020018273ffffffffffffffffffffffffffffffffffffffff1681526020019250505060405180910390a180600860006101000a81548173ffffffffffffffffffffffffffffffffffffffff021916908373ffffffffffffffffffffffffffffffffffffffff16021790555050565b6000808284019050838110156112e6576040517f08c379a000000000000000000000000000000000000000000000000000000000815260040180806020018281038252601b8152602001807f536166654d6174683a206164646974696f6e206f766572666c6f77000000000081525060200191505060405180910390fd5b8091505092915050565b600033905090565b600073ffffffffffffffffffffffffffffffffffffffff168373ffffffffffffffffffffffffffffffffffffffff16141561137e576040517f08c379a00000000000000000000000000000000000000000000000000000000081526004018080602001828103825260248152602001806120086024913960400191505060405180910390fd5b600073ffffffffffffffffffffffffffffffffffffffff168273ffffffffffffffffffffffffffffffffffffffff161415611404576040517f08c379a0000000000000000000000000000000000000000000000000000000008152600401808060200182810382526022815260200180611e8a6022913960400191505060405180910390fd5b80600160008573ffffffffffffffffffffffffffffffffffffffff1673ffffffffffffffffffffffffffffffffffffffff16815260200190815260200160002060008473ffffffffffffffffffffffffffffffffffffffff1673ffffffffffffffffffffffffffffffffffffffff168152602001908152602001600020819055508173ffffffffffffffffffffffffffffffffffffffff168373ffffffffffffffffffffffffffffffffffffffff167f8c5be1e5ebec7d5bd14f71427d1e84f3dd0314c0f7b2291e5b200ac8c7c3b925836040518082815260200191505060405180910390a3505050565b600073ffffffffffffffffffffffffffffffffffffffff168373ffffffffffffffffffffffffffffffffffffffff161415611575576040517f08c379a0000000000000000000000000000000000000000000000000000000008152600401808060200182810382526025815260200180611fe36025913960400191505060405180910390fd5b600073ffffffffffffffffffffffffffffffffffffffff168273ffffffffffffffffffffffffffffffffffffffff1614156115fb576040517f08c379a0000000000000000000000000000000000000000000000000000000008152600401808060200182810382526023815260200180611e676023913960400191505060405180910390fd5b611606838383611d9b565b61167181604051806060016040528060268152602001611ee9602691396000808773ffffffffffffffffffffffffffffffffffffffff1673ffffffffffffffffffffffffffffffffffffffff168152602001908152602001600020546117b09092919063ffffffff16565b6000808573ffffffffffffffffffffffffffffffffffffffff1673ffffffffffffffffffffffffffffffffffffffff16815260200190815260200160002081905550611704816000808573ffffffffffffffffffffffffffffffffffffffff1673ffffffffffffffffffffffffffffffffffffffff1681526020019081526020016000205461126890919063ffffffff16565b6000808473ffffffffffffffffffffffffffffffffffffffff1673ffffffffffffffffffffffffffffffffffffffff168152602001908152602001600020819055508173ffffffffffffffffffffffffffffffffffffffff168373ffffffffffffffffffffffffffffffffffffffff167fddf252ad1be2c89b69c2b068fc378daa952ba7f163c4a11628f55a4df523b3ef836040518082815260200191505060405180910390a3505050565b600083831115829061185d576040517f08c379a00000000000000000000000000000000000000000000000000000000081526004018080602001828103825283818151815260200191508051906020019080838360005b83811015611822578082015181840152602081019050611807565b50505050905090810190601f16801561184f5780820380516001836020036101000a031916815260200191505b509250505060405180910390fd5b5060008385039050809150509392505050565b60008083141561188357600090506118f0565b600082840290508284828161189457fe5b04146118eb576040517f08c379a0000000000000000000000000000000000000000000000000000000008152600401808060200182810382526021815260200180611f9a6021913960400191505060405180910390fd5b809150505b92915050565b600061193883836040518060400160405280601a81526020017f536166654d6174683a206469766973696f6e206279207a65726f000000000000815250611da0565b905092915050565b600073ffffffffffffffffffffffffffffffffffffffff168273ffffffffffffffffffffffffffffffffffffffff1614156119e3576040517f08c379a000000000000000000000000000000000000000000000000000000000815260040180806020018281038252601f8152602001807f45524332303a206d696e7420746f20746865207a65726f20616464726573730081525060200191505060405180910390fd5b6119ef60008383611d9b565b611a048160025461126890919063ffffffff16565b600281905550611a5b816000808573ffffffffffffffffffffffffffffffffffffffff1673ffffffffffffffffffffffffffffffffffffffff1681526020019081526020016000205461126890919063ffffffff16565b6000808473ffffffffffffffffffffffffffffffffffffffff1673ffffffffffffffffffffffffffffffffffffffff168152602001908152602001600020819055508173ffffffffffffffffffffffffffffffffffffffff16600073ffffffffffffffffffffffffffffffffffffffff167fddf252ad1be2c89b69c2b068fc378daa952ba7f163c4a11628f55a4df523b3ef836040518082815260200191505060405180910390a35050565b60006041825114611b80576040517f08c379a000000000000000000000000000000000000000000000000000000000815260040180806020018281038252601f8152602001807f45434453413a20696e76616c6964207369676e6174757265206c656e6774680081525060200191505060405180910390fd5b60008060006020850151925060408501519150606085015160001a90507f7fffffffffffffffffffffffffffffff5d576e7357a4501ddfe92f46681b20a08260001c1115611c19576040517f08c379a0000000000000000000000000000000000000000000000000000000008152600401808060200182810382526022815260200180611f0f6022913960400191505060405180910390fd5b601b8160ff161480611c2e5750601c8160ff16145b611c83576040517f08c379a0000000000000000000000000000000000000000000000000000000008152600401808060200182810382526022815260200180611f786022913960400191505060405180910390fd5b600060018783868660405160008152602001604052604051808581526020018460ff1681526020018381526020018281526020019450505050506020604051602081039080840390855afa158015611cdf573d6000803e3d6000fd5b505050602060405103519050600073ffffffffffffffffffffffffffffffffffffffff168173ffffffffffffffffffffffffffffffffffffffff161415611d8e576040517f08c379a00000000000000000000000000000000000000000000000000000000081526004018080602001828103825260188152602001807f45434453413a20696e76616c6964207369676e6174757265000000000000000081525060200191505060405180910390fd5b8094505050505092915050565b505050565b60008083118290611e4c576040517f08c379a00000000000000000000000000000000000000000000000000000000081526004018080602001828103825283818151815260200191508051906020019080838360005b83811015611e11578082015181840152602081019050611df6565b50505050905090810190601f168015611e3e5780820380516001836020036101000a031916815260200191505b509250505060405180910390fd5b506000838581611e5857fe5b04905080915050939250505056fe45524332303a207472616e7366657220746f20746865207a65726f206164647265737345524332303a20617070726f766520746f20746865207a65726f20616464726573734e574b3a3a7365744d696e7465723a206f6e6c7920746865206d696e7465722063616e206368616e676520746865206d696e746572206164647265737345524332303a207472616e7366657220616d6f756e7420657863656564732062616c616e636545434453413a20696e76616c6964207369676e6174757265202773272076616c75654e574b3a3a6d696e743a206d696e74696e67206e6f7420616c6c6f776564207965744e574b3a3a6d696e743a206f6e6c79207468652074726561737572792063616e206d696e7445434453413a20696e76616c6964207369676e6174757265202776272076616c7565536166654d6174683a206d756c7469706c69636174696f6e206f766572666c6f7745524332303a207472616e7366657220616d6f756e74206578636565647320616c6c6f77616e636545524332303a207472616e736665722066726f6d20746865207a65726f206164647265737345524332303a20617070726f76652066726f6d20746865207a65726f206164647265737345524332303a2064656372656173656420616c6c6f77616e63652062656c6f77207a65726fa264697066735822122090b0f2d1c104258bb00a516cf25dd3e15b262047af57802cdf8788274957c1d364736f6c634300070000334e574b3a3a636f6e7374727563746f723a206d696e74696e672063616e206f6e6c7920626567696e206166746572206465706c6f796d656e74",
  "immutableReferences": {},
  "source": "// SPDX-License-Identifier: MIT\n\npragma solidity ^0.7.0;\n\nimport '@openzeppelin/contracts/token/ERC20/ERC20.sol';\nimport \"@openzeppelin/contracts/cryptography/ECDSA.sol\";\nimport '@openzeppelin/contracts/math/SafeMath.sol';\n\n\n/// @title nWork application\n/// @author Simon Liu\n/// nWork allows holders get rewarded for doing work\n/// 1. Contractors get paid per task. Base reward + optional tip from employer.\n/// 2. Employers list jobs. Must offer base fee determined by curators (a percentage is burned). Employers can tip contractor and curator. \n/// 3. Curators check work of contractors. To enroll, the curator must deposit x tokens. They earn salary (minted), must remain productive or else salary is burned.  \n/// 4. PolicyMakers are stakers that determine the base fee for each listing. Also determines salary of curators. \n/// 5. Contract owner (multisig) can check policy makers by minting new coins and dilute policy makers percentage. This shouldn't happen frequently. Is this too much power?\n\n/// How to disincentivize bad behavior:\n/// 1. Contractors: before payout, curators will review the work of the contractors. Contractors won't want to spam contract because they have to pay eth gas.\n/// 2. Employers: must pay to list jobs\n/// 3. Curators: salary determined by policy makers. Can get salary cut if inactive or acting maliciously (determined by policy makers). \n/// 4. PolicyMakers: need quorum before action. Last resort, multi sig wallet can mint new coins to dilute majority vote.\n/// 5. Multi Sig Wallet Owner: All other parties dump the coin and render token useless.\n\n/// How to transfer \"job data\" to blockchain\n/// Using chainlink, we determine the official frontend location \n/// This will be initially set by the contract owner. Can be changed with governance token reach quorum.\n/// All other information will be stored using ethereum's ipfs. Expensive?\n\n///////////// EDITS \n\n/// nWork allows holders get rewarded for doing work\n/// 1. Contractors get paid per task. Base reward + optional tip from employer.\n///    Contractors can also review tasks of other jobs. Trustworthiness is determined by time in contract & social score.\n/// 2. Employers list jobs. Must offer base fee determined by curators (a percentage is burned). Employers can tip contractor. \n/// 3. PolicyMakers are stakers that determine the base fee for each listing.\n/// 4. Contract owner (multisig) can check policy makers by minting new coins and dilute policy makers percentage. This shouldn't happen frequently. Is this too much power?\n\n/// How to disincentivize bad behavior:\n/// 1. Contractors: before payout, curators will review the work of the contractors. Contractors won't want to spam contract because they have to pay eth gas.\n///    The longer the contractor has been working, the more trustworth their reviewship.\n/// 2. Employers: must pay to list jobs\n/// 3. PolicyMakers: need quorum before action. Last resort, multi sig wallet can mint new coins to dilute majority vote.\n/// 4. Multi Sig Wallet Owner: All other parties dump the coin and render token useless.\n\n/// How to transfer \"job data\" to blockchain\n/// Store official front end domain name as variable \n/// This will be initially set by the contract owner. Can be changed with governance token reach quorum.\n/// All other information will be stored using ethereum's ipfs\n\n/**\n * @title nWorkToken contract\n * @dev This is the implementation of the ERC20 nWork Token.\n * The implementation exposes a Permit() function to allow for a spender to send a signed message\n * and approve funds to a spender following EIP2612 to make integration with other contracts easier.\n * EIP2612 describes how to use EIP712 for the Permit() function.\n *\n */\ncontract nWorkToken is ERC20 {\n    using SafeMath for uint256;\n\n    // -- EIP 712 --\n    // All of these contants are hashed together in the constructor. They are a unique identifier for the contract\n    // This will be used in the permit function so owners can allow other addresses to spend their tokens\n    // This gives the ability to create gasless transactions (EIP2612)\n    bytes32 private constant DOMAIN_TYPE_HASH = keccak256(\n        \"EIP712Domain(string name,string version,uint256 chainId,address verifyContract,bytes32 salt)\"\n    );\n    bytes32 private constant DOMAIN_NAME_HASH = keccak256(\"nWork Token\");\n    bytes32 private constant DOMAIN_VERSION_HASH = keccak256(\"0\");\n    bytes32 private constant DOMAIN_SALT = 0x980cb6eac3e40de8c56a14e3590297fed65690e513fd5c1ef2ced9408b30303f;\n    bytes32 private constant PERMIT_TYPE_HASH = keccak256(\n        \"Permit(address owner,address spender,uint256 value,uint256 nonce,uint256 deadline)\"\n    );\n\n    // -- Events --\n    event MinterChanged(address minter, address newMinter);\n\n    // -- State --\n    bytes32 private DOMAIN_SEPARATOR;\n\n    mapping(address => uint256) public nonces;\n\n    address minter;\n\n    uint256 public mintingAllowedAfter;\n\n    uint256 public minimumTimeBetweenMints = 30 days;\n\n    // Cap on the percentage of totalSupply that can be minted at each mint\n    uint8 public constant mintCap = 2;\n\n    /**\n     * @dev Construct a new nWork token\n     * @param _account Developer account to initially mint tokens\n     * @param _minter The account with minting ability\n     * @param _initialSupplyDev Amount to give to the dev account\n     * @param _initialSupplyMinter Amount to give to the Treasury\n     * @param _mintingAllowedAfter The timestamp after which minting may occur\n     */\n    constructor(address _account, address _minter, uint256 _initialSupplyDev, uint256 _initialSupplyMinter, uint256 _mintingAllowedAfter) ERC20 (\"nWork Token\", \"NWK\") {\n        require(_mintingAllowedAfter >= block.timestamp, \"NWK::constructor: minting can only begin after deployment\");\n        \n        _mint(_account, _initialSupplyDev);\n        emit Transfer(address(0), _account, _initialSupplyDev);\n\n        _mint(_minter, _initialSupplyMinter);\n        emit Transfer(address(0), _minter, _initialSupplyMinter);\n\n        minter = _minter;\n        emit MinterChanged(address(0), minter);\n\n        mintingAllowedAfter = _mintingAllowedAfter;\n\n        // EIP-712 domain separator\n        DOMAIN_SEPARATOR = keccak256(\n            abi.encode(\n                DOMAIN_TYPE_HASH,\n                DOMAIN_NAME_HASH,\n                DOMAIN_VERSION_HASH,\n                _getChainID(),\n                address(this),\n                DOMAIN_SALT\n            )\n        );\n    }\n\n    /**\n     * @dev Approve token allowance by validating a message signed by the holder.\n     * @param _owner Address of the token holder\n     * @param _spender Address of the approved spender\n     * @param _value Amount of tokens to approve the spender\n     * @param _deadline Expiration time of the signed permit\n     * @param _v Signature version\n     * @param _r Signature r value\n     * @param _s Signature s value\n     */\n    function permit(address _owner, address _spender, uint256 _value, uint256 _deadline, uint8 _v, bytes32 _r, bytes32 _s) external {\n        bytes32 digest = keccak256(\n            abi.encodePacked(\n                \"\\x19\\x01\",\n                DOMAIN_SEPARATOR,\n                keccak256(\n                    abi.encode(\n                        PERMIT_TYPE_HASH,\n                        _owner,\n                        _spender,\n                        _value,\n                        nonces[_owner],\n                        _deadline\n                    )\n                )\n            )\n        );\n\n        nonces[_owner] = nonces[_owner].add(1);\n\n        address recoveredAddress = ECDSA.recover(digest, abi.encodePacked(_r, _s, _v));\n        require(_owner == recoveredAddress, \"NWK: invalid permit\");\n        require(_deadline == 0 || block.timestamp <= _deadline, \"NWK: expired permit\");\n\n        _approve(_owner, _spender, _value);\n    }\n\n    /**\n     * @dev Change the minter address\n     * @param _minter The address of the new minter\n     */\n    function setMinter(address _minter) external {\n        require(msg.sender == minter, \"NWK::setMinter: only the minter can change the minter address\");\n        emit MinterChanged(minter, _minter);\n        minter = _minter;\n    }\n\n    /**\n     * @dev mint coins to treasury only when stakeholders approve\n     */\n    function mint(uint256 _amount) external {\n        require(msg.sender == minter, \"NWK::mint: only the treasury can mint\");\n        require(block.timestamp >= mintingAllowedAfter, \"NWK::mint: minting not allowed yet\");\n\n        // record the mint\n        mintingAllowedAfter = SafeMath.add(block.timestamp, minimumTimeBetweenMints);\n        require(_amount <= SafeMath.div(SafeMath.mul(totalSupply(), mintCap), 100), \"NWK::mint: exceeded mint cap\");\n\n        _mint(msg.sender, _amount);\n    }\n\n    /**\n     * @dev Get the running network chain ID.\n     * @return The chain ID\n     */\n    function _getChainID() private pure returns (uint256) {\n        uint256 id;\n        assembly {\n            id := chainid()\n        }\n        return id;\n    }\n\n} ",
  "sourcePath": "/home/simon/nWorkApp/nWork/contracts/nWorkToken.sol",
  "compiler": {
    "name": "solc",
    "version": "0.7.0+commit.9e61f92b.Emscripten.clang"
  },
  "schemaVersion": "3.3.2",
  "updatedAt": "2021-01-04T23:56:21.677Z",
  "devdoc": {
    "details": "This is the implementation of the ERC20 nWork Token. The implementation exposes a Permit() function to allow for a spender to send a signed message and approve funds to a spender following EIP2612 to make integration with other contracts easier. EIP2612 describes how to use EIP712 for the Permit() function.",
    "kind": "dev",
    "methods": {
      "allowance(address,address)": {
        "details": "See {IERC20-allowance}."
      },
      "approve(address,uint256)": {
        "details": "See {IERC20-approve}. Requirements: - `spender` cannot be the zero address."
      },
      "balanceOf(address)": {
        "details": "See {IERC20-balanceOf}."
      },
      "constructor": {
        "details": "Construct a new nWork token",
        "params": {
          "_account": "Developer account to initially mint tokens",
          "_initialSupplyDev": "Amount to give to the dev account",
          "_initialSupplyMinter": "Amount to give to the Treasury",
          "_minter": "The account with minting ability",
          "_mintingAllowedAfter": "The timestamp after which minting may occur"
        }
      },
      "decimals()": {
        "details": "Returns the number of decimals used to get its user representation. For example, if `decimals` equals `2`, a balance of `505` tokens should be displayed to a user as `5,05` (`505 / 10 ** 2`). Tokens usually opt for a value of 18, imitating the relationship between Ether and Wei. This is the value {ERC20} uses, unless {_setupDecimals} is called. NOTE: This information is only used for _display_ purposes: it in no way affects any of the arithmetic of the contract, including {IERC20-balanceOf} and {IERC20-transfer}."
      },
      "decreaseAllowance(address,uint256)": {
        "details": "Atomically decreases the allowance granted to `spender` by the caller. This is an alternative to {approve} that can be used as a mitigation for problems described in {IERC20-approve}. Emits an {Approval} event indicating the updated allowance. Requirements: - `spender` cannot be the zero address. - `spender` must have allowance for the caller of at least `subtractedValue`."
      },
      "increaseAllowance(address,uint256)": {
        "details": "Atomically increases the allowance granted to `spender` by the caller. This is an alternative to {approve} that can be used as a mitigation for problems described in {IERC20-approve}. Emits an {Approval} event indicating the updated allowance. Requirements: - `spender` cannot be the zero address."
      },
      "mint(uint256)": {
        "details": "mint coins to treasury only when stakeholders approve"
      },
      "name()": {
        "details": "Returns the name of the token."
      },
      "permit(address,address,uint256,uint256,uint8,bytes32,bytes32)": {
        "details": "Approve token allowance by validating a message signed by the holder.",
        "params": {
          "_deadline": "Expiration time of the signed permit",
          "_owner": "Address of the token holder",
          "_r": "Signature r value",
          "_s": "Signature s value",
          "_spender": "Address of the approved spender",
          "_v": "Signature version",
          "_value": "Amount of tokens to approve the spender"
        }
      },
      "setMinter(address)": {
        "details": "Change the minter address",
        "params": {
          "_minter": "The address of the new minter"
        }
      },
      "symbol()": {
        "details": "Returns the symbol of the token, usually a shorter version of the name."
      },
      "totalSupply()": {
        "details": "See {IERC20-totalSupply}."
      },
      "transfer(address,uint256)": {
        "details": "See {IERC20-transfer}. Requirements: - `recipient` cannot be the zero address. - the caller must have a balance of at least `amount`."
      },
      "transferFrom(address,address,uint256)": {
        "details": "See {IERC20-transferFrom}. Emits an {Approval} event indicating the updated allowance. This is not required by the EIP. See the note at the beginning of {ERC20}. Requirements: - `sender` and `recipient` cannot be the zero address. - `sender` must have a balance of at least `amount`. - the caller must have allowance for ``sender``'s tokens of at least `amount`."
      }
    },
    "title": "nWorkToken contract",
    "version": 1
  },
  "userdoc": {
    "kind": "user",
    "methods": {},
    "version": 1
  }
}