{
  "contractName": "Treasury",
  "abi": [
    {
      "inputs": [
        {
          "internalType": "address",
          "name": "_admin",
          "type": "address"
        },
        {
          "internalType": "uint256",
          "name": "_delay",
          "type": "uint256"
        }
      ],
      "stateMutability": "nonpayable",
      "type": "constructor"
    },
    {
      "anonymous": false,
      "inputs": [
        {
          "indexed": true,
          "internalType": "address",
          "name": "newAdmin",
          "type": "address"
        }
      ],
      "name": "NewAdmin",
      "type": "event"
    },
    {
      "anonymous": false,
      "inputs": [
        {
          "indexed": true,
          "internalType": "address",
          "name": "newPendingAdmin",
          "type": "address"
        }
      ],
      "name": "NewPendingAdmin",
      "type": "event"
    },
    {
      "inputs": [],
      "name": "GRACE_PERIOD",
      "outputs": [
        {
          "internalType": "uint256",
          "name": "",
          "type": "uint256"
        }
      ],
      "stateMutability": "view",
      "type": "function"
    },
    {
      "inputs": [],
      "name": "MAXIMUM_DELAY",
      "outputs": [
        {
          "internalType": "uint256",
          "name": "",
          "type": "uint256"
        }
      ],
      "stateMutability": "view",
      "type": "function"
    },
    {
      "inputs": [],
      "name": "MINIMUM_DELAY",
      "outputs": [
        {
          "internalType": "uint256",
          "name": "",
          "type": "uint256"
        }
      ],
      "stateMutability": "view",
      "type": "function"
    },
    {
      "inputs": [],
      "name": "admin",
      "outputs": [
        {
          "internalType": "address",
          "name": "",
          "type": "address"
        }
      ],
      "stateMutability": "view",
      "type": "function"
    },
    {
      "inputs": [],
      "name": "pendingAdmin",
      "outputs": [
        {
          "internalType": "address",
          "name": "",
          "type": "address"
        }
      ],
      "stateMutability": "view",
      "type": "function"
    },
    {
      "inputs": [],
      "name": "thawingPeriod",
      "outputs": [
        {
          "internalType": "uint32",
          "name": "",
          "type": "uint32"
        }
      ],
      "stateMutability": "view",
      "type": "function"
    },
    {
      "inputs": [],
      "name": "acceptAdmin",
      "outputs": [],
      "stateMutability": "nonpayable",
      "type": "function"
    },
    {
      "inputs": [
        {
          "internalType": "address",
          "name": "_pendingAdmin",
          "type": "address"
        }
      ],
      "name": "setPendingAdmin",
      "outputs": [],
      "stateMutability": "nonpayable",
      "type": "function"
    },
    {
      "inputs": [],
      "name": "executeTransaction",
      "outputs": [],
      "stateMutability": "nonpayable",
      "type": "function"
    }
  ],
  "bytecode": "0x608060405234801561001057600080fd5b5060405161084e38038061084e8339818101604052604081101561003357600080fd5b8101908080519060200190929190805190602001909291905050506202a3008110156100aa576040517f08c379a00000000000000000000000000000000000000000000000000000000081526004018080602001828103825260358152602001806107e06035913960400191505060405180910390fd5b62278d00811115610106576040517f08c379a00000000000000000000000000000000000000000000000000000000081526004018080602001828103825260398152602001806108156039913960400191505060405180910390fd5b816000806101000a81548173ffffffffffffffffffffffffffffffffffffffff021916908373ffffffffffffffffffffffffffffffffffffffff1602179055505050610689806101576000396000f3fe608060405234801561001057600080fd5b50600436106100935760003560e01c80637d645fab116100665780637d645fab14610124578063b1b43ae514610142578063c1a287e214610160578063cdc747dd1461017e578063f851a440146101a257610093565b80630e18b681146100985780630eb288f1146100a257806326782247146100ac5780634dd18bf5146100e0575b600080fd5b6100a06101d6565b005b6100aa610363565b005b6100b4610409565b604051808273ffffffffffffffffffffffffffffffffffffffff16815260200191505060405180910390f35b610122600480360360208110156100f657600080fd5b81019080803573ffffffffffffffffffffffffffffffffffffffff16906020019092919050505061042f565b005b61012c61055c565b6040518082815260200191505060405180910390f35b61014a610563565b6040518082815260200191505060405180910390f35b61016861056a565b6040518082815260200191505060405180910390f35b610186610571565b604051808263ffffffff16815260200191505060405180910390f35b6101aa610587565b604051808273ffffffffffffffffffffffffffffffffffffffff16815260200191505060405180910390f35b600160009054906101000a900473ffffffffffffffffffffffffffffffffffffffff1673ffffffffffffffffffffffffffffffffffffffff163373ffffffffffffffffffffffffffffffffffffffff161461027c576040517f08c379a00000000000000000000000000000000000000000000000000000000081526004018080602001828103825260388152602001806105e46038913960400191505060405180910390fd5b336000806101000a81548173ffffffffffffffffffffffffffffffffffffffff021916908373ffffffffffffffffffffffffffffffffffffffff1602179055506000600160006101000a81548173ffffffffffffffffffffffffffffffffffffffff021916908373ffffffffffffffffffffffffffffffffffffffff16021790555060008054906101000a900473ffffffffffffffffffffffffffffffffffffffff1673ffffffffffffffffffffffffffffffffffffffff167f71614071b88dee5e0b2ae578a9dd7b2ebbe9ae832ba419dc0242cd065a290b6c60405160405180910390a2565b60008054906101000a900473ffffffffffffffffffffffffffffffffffffffff1673ffffffffffffffffffffffffffffffffffffffff163373ffffffffffffffffffffffffffffffffffffffff1614610407576040517f08c379a00000000000000000000000000000000000000000000000000000000081526004018080602001828103825260388152602001806105ac6038913960400191505060405180910390fd5b565b600160009054906101000a900473ffffffffffffffffffffffffffffffffffffffff1681565b3073ffffffffffffffffffffffffffffffffffffffff163373ffffffffffffffffffffffffffffffffffffffff16146104b3576040517f08c379a000000000000000000000000000000000000000000000000000000000815260040180806020018281038252603881526020018061061c6038913960400191505060405180910390fd5b80600160006101000a81548173ffffffffffffffffffffffffffffffffffffffff021916908373ffffffffffffffffffffffffffffffffffffffff160217905550600160009054906101000a900473ffffffffffffffffffffffffffffffffffffffff1673ffffffffffffffffffffffffffffffffffffffff167f69d78e38a01985fbb1462961809b4b2d65531bc93b2b94037f3334b82ca4a75660405160405180910390a250565b62278d0081565b6202a30081565b6212750081565b600360009054906101000a900463ffffffff1681565b60008054906101000a900473ffffffffffffffffffffffffffffffffffffffff168156fe54726561737572793a3a657865637574655472616e73616374696f6e3a2043616c6c206d75737420636f6d652066726f6d2061646d696e2e54726561737572793a3a61636365707441646d696e3a2043616c6c206d75737420636f6d652066726f6d2070656e64696e6741646d696e2e54726561737572793a3a73657450656e64696e6741646d696e3a2043616c6c206d75737420636f6d652066726f6d2054726561737572792ea2646970667358221220f2d8a9dcd3be5c3031d9b33d4c898f38ff1d0fd08dcfa74ae35eb17c63a4bebe64736f6c6343000703003354726561737572793a636f6e7374727563746f723a2044656c6179206d75737420657863656564206d696e696d756d2064656c617954726561737572793a636f6e7374727563746f723a2044656c6179206d757374206e6f7420657863656564206d6178696d756d2064656c6179",
  "immutableReferences": {},
  "source": "// SPDX-License-Identifier: MIT\npragma solidity ^0.7.0;\n\nimport '@openzeppelin/contracts/math/SafeMath.sol';\n\ncontract Treasury {\n\n    using SafeMath for uint256;\n\n    event NewAdmin(address indexed newAdmin);\n    event NewPendingAdmin(address indexed newPendingAdmin);\n\n    // -- State --\n    uint256 public constant GRACE_PERIOD = 14 days;\n    uint256 public constant MINIMUM_DELAY = 2 days;\n    uint256 public constant MAXIMUM_DELAY = 30 days;\n    address public admin;\n\n    // if we ever want to change the governance contract\n    address public pendingAdmin;\n\n    mapping (address => uint256) stakingBalances;\n\n    uint32 public thawingPeriod;\n\n    /**\n     * @param _admin The governance contract\n     * @param _delay Delay before we can deploy. Used to allow dependencies to deploy first.\n     */\n    constructor(address _admin, uint256 _delay) {\n        require(_delay >= MINIMUM_DELAY, \"Treasury:constructor: Delay must exceed minimum delay\");\n        require(_delay <= MAXIMUM_DELAY, \"Treasury:constructor: Delay must not exceed maximum delay\");\n        admin = _admin;\n    }\n\n    function acceptAdmin() public {\n        require(msg.sender == pendingAdmin, \"Treasury::acceptAdmin: Call must come from pendingAdmin.\");\n        admin = msg.sender;\n        pendingAdmin = address(0);\n\n        emit NewAdmin(admin);\n    }\n\n    function setPendingAdmin(address _pendingAdmin) public {\n        require(msg.sender == address(this), \"Treasury::setPendingAdmin: Call must come from Treasury.\");\n        pendingAdmin = _pendingAdmin; \n\n        emit NewPendingAdmin(pendingAdmin);\n    }\n\n    /**\n     * @dev The treasury will execute functions only if the Governance contract allows of it\n     */\n    function executeTransaction() public {\n        require(msg.sender == admin, \"Treasury::executeTransaction: Call must come from admin.\"); \n    }\n}\n",
  "sourcePath": "/home/simon/nWork/nWork/contracts/Treasury.sol",
  "compiler": {
    "name": "solc",
    "version": "0.7.3+commit.9bfce1f6.Emscripten.clang"
  },
  "schemaVersion": "3.3.2",
  "updatedAt": "2021-01-10T22:29:01.355Z",
  "devdoc": {
    "kind": "dev",
    "methods": {
      "constructor": {
        "params": {
          "_admin": "The governance contract",
          "_delay": "Delay before we can deploy. Used to allow dependencies to deploy first."
        }
      },
      "executeTransaction()": {
        "details": "The treasury will execute functions only if the Governance contract allows of it"
      }
    },
    "version": 1
  },
  "userdoc": {
    "kind": "user",
    "methods": {},
    "version": 1
  }
}