{
  "contractName": "Treasury",
  "abi": [
    {
      "inputs": [
        {
          "internalType": "address",
          "name": "_admin",
          "type": "address"
        }
      ],
      "stateMutability": "nonpayable",
      "type": "constructor"
    },
    {
      "anonymous": false,
      "inputs": [
        {
          "indexed": true,
          "internalType": "address",
          "name": "newAdmin",
          "type": "address"
        }
      ],
      "name": "NewAdmin",
      "type": "event"
    },
    {
      "anonymous": false,
      "inputs": [
        {
          "indexed": true,
          "internalType": "address",
          "name": "newPendingAdmin",
          "type": "address"
        }
      ],
      "name": "NewPendingAdmin",
      "type": "event"
    },
    {
      "inputs": [],
      "name": "admin",
      "outputs": [
        {
          "internalType": "address",
          "name": "",
          "type": "address"
        }
      ],
      "stateMutability": "view",
      "type": "function"
    },
    {
      "inputs": [],
      "name": "pendingAdmin",
      "outputs": [
        {
          "internalType": "address",
          "name": "",
          "type": "address"
        }
      ],
      "stateMutability": "view",
      "type": "function"
    },
    {
      "inputs": [],
      "name": "thawingPeriod",
      "outputs": [
        {
          "internalType": "uint32",
          "name": "",
          "type": "uint32"
        }
      ],
      "stateMutability": "view",
      "type": "function"
    },
    {
      "inputs": [],
      "name": "acceptAdmin",
      "outputs": [],
      "stateMutability": "nonpayable",
      "type": "function"
    },
    {
      "inputs": [
        {
          "internalType": "address",
          "name": "_pendingAdmin",
          "type": "address"
        }
      ],
      "name": "setPendingAdmin",
      "outputs": [],
      "stateMutability": "nonpayable",
      "type": "function"
    },
    {
      "inputs": [],
      "name": "executeTransaction",
      "outputs": [],
      "stateMutability": "nonpayable",
      "type": "function"
    }
  ],
  "bytecode": "0x608060405234801561001057600080fd5b5060405161067d38038061067d8339818101604052602081101561003357600080fd5b8101908080519060200190929190505050806000806101000a81548173ffffffffffffffffffffffffffffffffffffffff021916908373ffffffffffffffffffffffffffffffffffffffff160217905550506105e9806100946000396000f3fe608060405234801561001057600080fd5b50600436106100625760003560e01c80630e18b681146100675780630eb288f114610071578063267822471461007b5780634dd18bf5146100af578063cdc747dd146100f3578063f851a44014610117575b600080fd5b61006f61014b565b005b6100796102d8565b005b61008361037e565b604051808273ffffffffffffffffffffffffffffffffffffffff16815260200191505060405180910390f35b6100f1600480360360208110156100c557600080fd5b81019080803573ffffffffffffffffffffffffffffffffffffffff1690602001909291905050506103a4565b005b6100fb6104d1565b604051808263ffffffff16815260200191505060405180910390f35b61011f6104e7565b604051808273ffffffffffffffffffffffffffffffffffffffff16815260200191505060405180910390f35b600160009054906101000a900473ffffffffffffffffffffffffffffffffffffffff1673ffffffffffffffffffffffffffffffffffffffff163373ffffffffffffffffffffffffffffffffffffffff16146101f1576040517f08c379a00000000000000000000000000000000000000000000000000000000081526004018080602001828103825260388152602001806105446038913960400191505060405180910390fd5b336000806101000a81548173ffffffffffffffffffffffffffffffffffffffff021916908373ffffffffffffffffffffffffffffffffffffffff1602179055506000600160006101000a81548173ffffffffffffffffffffffffffffffffffffffff021916908373ffffffffffffffffffffffffffffffffffffffff16021790555060008054906101000a900473ffffffffffffffffffffffffffffffffffffffff1673ffffffffffffffffffffffffffffffffffffffff167f71614071b88dee5e0b2ae578a9dd7b2ebbe9ae832ba419dc0242cd065a290b6c60405160405180910390a2565b60008054906101000a900473ffffffffffffffffffffffffffffffffffffffff1673ffffffffffffffffffffffffffffffffffffffff163373ffffffffffffffffffffffffffffffffffffffff161461037c576040517f08c379a000000000000000000000000000000000000000000000000000000000815260040180806020018281038252603881526020018061050c6038913960400191505060405180910390fd5b565b600160009054906101000a900473ffffffffffffffffffffffffffffffffffffffff1681565b3073ffffffffffffffffffffffffffffffffffffffff163373ffffffffffffffffffffffffffffffffffffffff1614610428576040517f08c379a000000000000000000000000000000000000000000000000000000000815260040180806020018281038252603881526020018061057c6038913960400191505060405180910390fd5b80600160006101000a81548173ffffffffffffffffffffffffffffffffffffffff021916908373ffffffffffffffffffffffffffffffffffffffff160217905550600160009054906101000a900473ffffffffffffffffffffffffffffffffffffffff1673ffffffffffffffffffffffffffffffffffffffff167f69d78e38a01985fbb1462961809b4b2d65531bc93b2b94037f3334b82ca4a75660405160405180910390a250565b600360009054906101000a900463ffffffff1681565b60008054906101000a900473ffffffffffffffffffffffffffffffffffffffff168156fe54726561737572793a3a657865637574655472616e73616374696f6e3a2043616c6c206d75737420636f6d652066726f6d2061646d696e2e54726561737572793a3a61636365707441646d696e3a2043616c6c206d75737420636f6d652066726f6d2070656e64696e6741646d696e2e54726561737572793a3a73657450656e64696e6741646d696e3a2043616c6c206d75737420636f6d652066726f6d2054726561737572792ea2646970667358221220c6de433a52810afddaf1c8c48624c82162183e98c86f615594a7cc4572b12c7d64736f6c63430007000033",
  "immutableReferences": {},
  "source": "// SPDX-License-Identifier: MIT\npragma solidity ^0.7.0;\n\nimport '@openzeppelin/contracts/math/SafeMath.sol';\n\ncontract Treasury {\n\n    using SafeMath for uint256;\n\n    event NewAdmin(address indexed newAdmin);\n    event NewPendingAdmin(address indexed newPendingAdmin);\n\n    // -- State --\n\n    address public admin;\n\n    // if we ever want to change the governance contract\n    address public pendingAdmin;\n\n    mapping (address => uint256) stakingBalances;\n\n    uint32 public thawingPeriod;\n\n    /**\n     * @param _admin The governance contract\n     */\n    constructor(address _admin) {\n        admin = _admin;\n    }\n\n    function acceptAdmin() public {\n        require(msg.sender == pendingAdmin, \"Treasury::acceptAdmin: Call must come from pendingAdmin.\");\n        admin = msg.sender;\n        pendingAdmin = address(0);\n\n        emit NewAdmin(admin);\n    }\n\n    function setPendingAdmin(address _pendingAdmin) public {\n        require(msg.sender == address(this), \"Treasury::setPendingAdmin: Call must come from Treasury.\");\n        pendingAdmin = _pendingAdmin; \n\n        emit NewPendingAdmin(pendingAdmin);\n    }\n\n    /**\n     * @dev The treasury will execute functions only if the Governance contract allows of it\n     */\n    function executeTransaction() public {\n        require(msg.sender == admin, \"Treasury::executeTransaction: Call must come from admin.\"); \n    }\n}\n",
  "sourcePath": "/home/simon/nWorkApp/nWork/contracts/Treasury.sol",
  "compiler": {
    "name": "solc",
    "version": "0.7.0+commit.9e61f92b.Emscripten.clang"
  },
  "schemaVersion": "3.3.2",
  "updatedAt": "2021-01-04T23:56:21.672Z",
  "devdoc": {
    "kind": "dev",
    "methods": {
      "constructor": {
        "params": {
          "_admin": "The governance contract"
        }
      },
      "executeTransaction()": {
        "details": "The treasury will execute functions only if the Governance contract allows of it"
      }
    },
    "version": 1
  },
  "userdoc": {
    "kind": "user",
    "methods": {},
    "version": 1
  }
}