{
  "_format": "hh-sol-artifact-1",
  "contractName": "Governor",
  "sourceName": "contracts/Governor.sol",
  "abi": [
    {
      "inputs": [
        {
          "internalType": "address",
          "name": "_treasury",
          "type": "address"
        },
        {
          "internalType": "address",
          "name": "_nwk",
          "type": "address"
        },
        {
          "internalType": "address",
          "name": "_nwkCore",
          "type": "address"
        }
      ],
      "stateMutability": "nonpayable",
      "type": "constructor"
    },
    {
      "anonymous": false,
      "inputs": [
        {
          "indexed": false,
          "internalType": "uint256",
          "name": "id",
          "type": "uint256"
        }
      ],
      "name": "ProposalCanceled",
      "type": "event"
    },
    {
      "anonymous": false,
      "inputs": [
        {
          "indexed": false,
          "internalType": "uint256",
          "name": "id",
          "type": "uint256"
        },
        {
          "indexed": false,
          "internalType": "address",
          "name": "proposer",
          "type": "address"
        },
        {
          "indexed": false,
          "internalType": "address[]",
          "name": "targets",
          "type": "address[]"
        },
        {
          "indexed": false,
          "internalType": "uint256[]",
          "name": "values",
          "type": "uint256[]"
        },
        {
          "indexed": false,
          "internalType": "string[]",
          "name": "signatures",
          "type": "string[]"
        },
        {
          "indexed": false,
          "internalType": "bytes[]",
          "name": "calldatas",
          "type": "bytes[]"
        },
        {
          "indexed": false,
          "internalType": "uint256",
          "name": "startBlock",
          "type": "uint256"
        },
        {
          "indexed": false,
          "internalType": "uint256",
          "name": "endBlock",
          "type": "uint256"
        },
        {
          "indexed": false,
          "internalType": "string",
          "name": "description",
          "type": "string"
        }
      ],
      "name": "ProposalCreated",
      "type": "event"
    },
    {
      "anonymous": false,
      "inputs": [
        {
          "indexed": false,
          "internalType": "uint256",
          "name": "id",
          "type": "uint256"
        }
      ],
      "name": "ProposalExecuted",
      "type": "event"
    },
    {
      "anonymous": false,
      "inputs": [
        {
          "indexed": false,
          "internalType": "uint256",
          "name": "id",
          "type": "uint256"
        },
        {
          "indexed": false,
          "internalType": "uint256",
          "name": "eta",
          "type": "uint256"
        }
      ],
      "name": "ProposalQueued",
      "type": "event"
    },
    {
      "anonymous": false,
      "inputs": [
        {
          "indexed": false,
          "internalType": "address",
          "name": "voter",
          "type": "address"
        },
        {
          "indexed": false,
          "internalType": "uint256",
          "name": "proposalId",
          "type": "uint256"
        },
        {
          "indexed": false,
          "internalType": "bool",
          "name": "support",
          "type": "bool"
        },
        {
          "indexed": false,
          "internalType": "uint256",
          "name": "votes",
          "type": "uint256"
        }
      ],
      "name": "VoteCast",
      "type": "event"
    },
    {
      "inputs": [],
      "name": "BALLOT_TYPEHASH",
      "outputs": [
        {
          "internalType": "bytes32",
          "name": "",
          "type": "bytes32"
        }
      ],
      "stateMutability": "view",
      "type": "function"
    },
    {
      "inputs": [],
      "name": "DOMAIN_TYPEHASH",
      "outputs": [
        {
          "internalType": "bytes32",
          "name": "",
          "type": "bytes32"
        }
      ],
      "stateMutability": "view",
      "type": "function"
    },
    {
      "inputs": [
        {
          "internalType": "address",
          "name": "",
          "type": "address"
        }
      ],
      "name": "latestProposalIds",
      "outputs": [
        {
          "internalType": "uint256",
          "name": "",
          "type": "uint256"
        }
      ],
      "stateMutability": "view",
      "type": "function"
    },
    {
      "inputs": [],
      "name": "nwk",
      "outputs": [
        {
          "internalType": "contract NwkInterface",
          "name": "",
          "type": "address"
        }
      ],
      "stateMutability": "view",
      "type": "function"
    },
    {
      "inputs": [],
      "name": "nwkApp",
      "outputs": [
        {
          "internalType": "contract NwkCoreInterface",
          "name": "",
          "type": "address"
        }
      ],
      "stateMutability": "view",
      "type": "function"
    },
    {
      "inputs": [],
      "name": "proposalCount",
      "outputs": [
        {
          "internalType": "uint256",
          "name": "",
          "type": "uint256"
        }
      ],
      "stateMutability": "view",
      "type": "function"
    },
    {
      "inputs": [],
      "name": "proposalThreshold",
      "outputs": [
        {
          "internalType": "uint256",
          "name": "",
          "type": "uint256"
        }
      ],
      "stateMutability": "pure",
      "type": "function"
    },
    {
      "inputs": [
        {
          "internalType": "uint256",
          "name": "",
          "type": "uint256"
        }
      ],
      "name": "proposals",
      "outputs": [
        {
          "internalType": "uint256",
          "name": "id",
          "type": "uint256"
        },
        {
          "internalType": "address",
          "name": "proposer",
          "type": "address"
        },
        {
          "internalType": "uint256",
          "name": "eta",
          "type": "uint256"
        },
        {
          "internalType": "uint256",
          "name": "forVotes",
          "type": "uint256"
        },
        {
          "internalType": "uint256",
          "name": "againstVotes",
          "type": "uint256"
        },
        {
          "internalType": "bool",
          "name": "canceled",
          "type": "bool"
        },
        {
          "internalType": "bool",
          "name": "executed",
          "type": "bool"
        }
      ],
      "stateMutability": "view",
      "type": "function"
    },
    {
      "inputs": [
        {
          "internalType": "address[]",
          "name": "targets",
          "type": "address[]"
        },
        {
          "internalType": "uint256[]",
          "name": "values",
          "type": "uint256[]"
        },
        {
          "internalType": "string[]",
          "name": "signatures",
          "type": "string[]"
        },
        {
          "internalType": "bytes[]",
          "name": "calldatas",
          "type": "bytes[]"
        },
        {
          "internalType": "string",
          "name": "description",
          "type": "string"
        }
      ],
      "name": "propose",
      "outputs": [
        {
          "internalType": "uint256",
          "name": "",
          "type": "uint256"
        }
      ],
      "stateMutability": "nonpayable",
      "type": "function"
    },
    {
      "inputs": [],
      "name": "quorumVotes",
      "outputs": [
        {
          "internalType": "uint256",
          "name": "",
          "type": "uint256"
        }
      ],
      "stateMutability": "pure",
      "type": "function"
    },
    {
      "inputs": [],
      "name": "treasury",
      "outputs": [
        {
          "internalType": "contract TreasuryInterface",
          "name": "",
          "type": "address"
        }
      ],
      "stateMutability": "view",
      "type": "function"
    }
  ],
  "bytecode": "0x60806040523480156200001157600080fd5b50604051620011c1380380620011c183398181016040528101906200003791906200011a565b82600360006101000a81548173ffffffffffffffffffffffffffffffffffffffff021916908373ffffffffffffffffffffffffffffffffffffffff16021790555081600460006101000a81548173ffffffffffffffffffffffffffffffffffffffff021916908373ffffffffffffffffffffffffffffffffffffffff16021790555080600560006101000a81548173ffffffffffffffffffffffffffffffffffffffff021916908373ffffffffffffffffffffffffffffffffffffffff160217905550505050620001be565b6000815190506200011481620001a4565b92915050565b6000806000606084860312156200013057600080fd5b6000620001408682870162000103565b9350506020620001538682870162000103565b9250506040620001668682870162000103565b9150509250925092565b60006200017d8262000184565b9050919050565b600073ffffffffffffffffffffffffffffffffffffffff82169050919050565b620001af8162000170565b8114620001bb57600080fd5b50565b610ff380620001ce6000396000f3fe608060405234801561001057600080fd5b50600436106100a95760003560e01c806361d027b31161007157806361d027b31461016e57806365743ee51461018c578063b58131b0146101aa578063da35c664146101c8578063da95691a146101e6578063deaaa7cc14610216576100a9565b8063013cf08b146100ae57806317977c61146100e45780631bff496e1461011457806320606b701461013257806324bc1a6414610150575b600080fd5b6100c860048036038101906100c39190610999565b610234565b6040516100db9796959493929190610c7a565b60405180910390f35b6100fe60048036038101906100f99190610881565b6102b0565b60405161010b9190610c5f565b60405180910390f35b61011c6102c8565b6040516101299190610bc7565b60405180910390f35b61013a6102ee565b6040516101479190610b91565b60405180910390f35b610158610312565b6040516101659190610c5f565b60405180910390f35b61017661031e565b6040516101839190610be2565b60405180910390f35b610194610344565b6040516101a19190610bac565b60405180910390f35b6101b261036a565b6040516101bf9190610c5f565b60405180910390f35b6101d0610375565b6040516101dd9190610c5f565b60405180910390f35b61020060048036038101906101fb91906108aa565b61037b565b60405161020d9190610c5f565b60405180910390f35b61021e6104e3565b60405161022b9190610b91565b60405180910390f35b60006020528060005260406000206000915090508060000154908060010160009054906101000a900473ffffffffffffffffffffffffffffffffffffffff16908060020154908060070154908060080154908060090160009054906101000a900460ff16908060090160019054906101000a900460ff16905087565b60016020528060005260406000206000915090505481565b600460009054906101000a900473ffffffffffffffffffffffffffffffffffffffff1681565b7f8cad95687ba82c2ce50e74f7b754645e5117c3a5bec8151c0726d5857980a86681565b60006301c9c380905090565b600360009054906101000a900473ffffffffffffffffffffffffffffffffffffffff1681565b600560009054906101000a900473ffffffffffffffffffffffffffffffffffffffff1681565b60006207a120905090565b60025481565b600061038561036a565b600460009054906101000a900473ffffffffffffffffffffffffffffffffffffffff1673ffffffffffffffffffffffffffffffffffffffff1663782d6fe1336103cf436001610507565b6040518363ffffffff1660e01b81526004016103ec929190610b68565b60206040518083038186803b15801561040457600080fd5b505afa158015610418573d6000803e3d6000fd5b505050506040513d601f19601f8201168201806040525081019061043c91906109c2565b1161047c576040517f08c379a000000000000000000000000000000000000000000000000000000000815260040161047390610c1f565b60405180910390fd5b8451865114801561048e575083518651145b801561049b575082518651145b6104da576040517f08c379a00000000000000000000000000000000000000000000000000000000081526004016104d190610c3f565b60405180910390fd5b95945050505050565b7f8e25870c07e0b0b3884c78da52790939a455c275406c44ae8b434b692fb916ee81565b600061054983836040518060400160405280601e81526020017f536166654d6174683a207375627472616374696f6e206f766572666c6f770000815250610551565b905092915050565b6000838311158290610599576040517f08c379a00000000000000000000000000000000000000000000000000000000081526004016105909190610bfd565b60405180910390fd5b5060008385039050809150509392505050565b6000813590506105bb81610f8f565b92915050565b600082601f8301126105d257600080fd5b81356105e56105e082610d1a565b610ce9565b9150818183526020840193506020810190508385602084028201111561060a57600080fd5b60005b8381101561063a578161062088826105ac565b84526020840193506020830192505060018101905061060d565b5050505092915050565b600082601f83011261065557600080fd5b813561066861066382610d46565b610ce9565b9150818183526020840193506020810190508360005b838110156106ae578135860161069488826107af565b84526020840193506020830192505060018101905061067e565b5050505092915050565b600082601f8301126106c957600080fd5b81356106dc6106d782610d72565b610ce9565b9150818183526020840193506020810190508360005b8381101561072257813586016107088882610803565b8452602084019350602083019250506001810190506106f2565b5050505092915050565b600082601f83011261073d57600080fd5b813561075061074b82610d9e565b610ce9565b9150818183526020840193506020810190508385602084028201111561077557600080fd5b60005b838110156107a5578161078b8882610857565b845260208401935060208301925050600181019050610778565b5050505092915050565b600082601f8301126107c057600080fd5b81356107d36107ce82610dca565b610ce9565b915080825260208301602083018583830111156107ef57600080fd5b6107fa838284610f3a565b50505092915050565b600082601f83011261081457600080fd5b813561082761082282610dfa565b610ce9565b9150808252602083016020830185838301111561084357600080fd5b61084e838284610f3a565b50505092915050565b60008135905061086681610fa6565b92915050565b60008151905061087b81610fa6565b92915050565b60006020828403121561089357600080fd5b60006108a1848285016105ac565b91505092915050565b600080600080600060a086880312156108c257600080fd5b600086013567ffffffffffffffff8111156108dc57600080fd5b6108e8888289016105c1565b955050602086013567ffffffffffffffff81111561090557600080fd5b6109118882890161072c565b945050604086013567ffffffffffffffff81111561092e57600080fd5b61093a888289016106b8565b935050606086013567ffffffffffffffff81111561095757600080fd5b61096388828901610644565b925050608086013567ffffffffffffffff81111561098057600080fd5b61098c88828901610803565b9150509295509295909350565b6000602082840312156109ab57600080fd5b60006109b984828501610857565b91505092915050565b6000602082840312156109d457600080fd5b60006109e28482850161086c565b91505092915050565b6109f481610e98565b82525050565b610a0381610e46565b82525050565b610a1281610e58565b82525050565b610a2181610e64565b82525050565b610a3081610eaa565b82525050565b610a3f81610ece565b82525050565b610a4e81610ef2565b82525050565b6000610a5f82610e2a565b610a698185610e35565b9350610a79818560208601610f49565b610a8281610f7e565b840191505092915050565b6000610a9a603a83610e35565b91507f476f7665726e6f723a3a70726f706f73653a2070726f706f73657220766f746560008301527f732062656c6f772070726f706f73616c207468726573686f6c640000000000006020830152604082019050919050565b6000610b00603f83610e35565b91507f476f7665726e6f723a3a70726f706f73653a2070726f706f73616c2066756e6360008301527f74696f6e20696e666f726d6174696f6e206172697479206d69736d61746368006020830152604082019050919050565b610b6281610e8e565b82525050565b6000604082019050610b7d60008301856109eb565b610b8a6020830184610b59565b9392505050565b6000602082019050610ba66000830184610a18565b92915050565b6000602082019050610bc16000830184610a27565b92915050565b6000602082019050610bdc6000830184610a36565b92915050565b6000602082019050610bf76000830184610a45565b92915050565b60006020820190508181036000830152610c178184610a54565b905092915050565b60006020820190508181036000830152610c3881610a8d565b9050919050565b60006020820190508181036000830152610c5881610af3565b9050919050565b6000602082019050610c746000830184610b59565b92915050565b600060e082019050610c8f600083018a610b59565b610c9c60208301896109fa565b610ca96040830188610b59565b610cb66060830187610b59565b610cc36080830186610b59565b610cd060a0830185610a09565b610cdd60c0830184610a09565b98975050505050505050565b6000604051905081810181811067ffffffffffffffff82111715610d1057610d0f610f7c565b5b8060405250919050565b600067ffffffffffffffff821115610d3557610d34610f7c565b5b602082029050602081019050919050565b600067ffffffffffffffff821115610d6157610d60610f7c565b5b602082029050602081019050919050565b600067ffffffffffffffff821115610d8d57610d8c610f7c565b5b602082029050602081019050919050565b600067ffffffffffffffff821115610db957610db8610f7c565b5b602082029050602081019050919050565b600067ffffffffffffffff821115610de557610de4610f7c565b5b601f19601f8301169050602081019050919050565b600067ffffffffffffffff821115610e1557610e14610f7c565b5b601f19601f8301169050602081019050919050565b600081519050919050565b600082825260208201905092915050565b6000610e5182610e6e565b9050919050565b60008115159050919050565b6000819050919050565b600073ffffffffffffffffffffffffffffffffffffffff82169050919050565b6000819050919050565b6000610ea382610f16565b9050919050565b6000610eb582610ebc565b9050919050565b6000610ec782610e6e565b9050919050565b6000610ed982610ee0565b9050919050565b6000610eeb82610e6e565b9050919050565b6000610efd82610f04565b9050919050565b6000610f0f82610e6e565b9050919050565b6000610f2182610f28565b9050919050565b6000610f3382610e6e565b9050919050565b82818337600083830152505050565b60005b83811015610f67578082015181840152602081019050610f4c565b83811115610f76576000848401525b50505050565bfe5b6000601f19601f8301169050919050565b610f9881610e46565b8114610fa357600080fd5b50565b610faf81610e8e565b8114610fba57600080fd5b5056fea26469706673582212202177a17bfc2ad9076d3acf299243ed8f356df231d0635a4c6227e5c3058b80eb64736f6c63430007030033",
  "linkReferences": {},
  "deployedLinkReferences": {}
}